{
  "contractName": "MusicMarket",
  "abi": [
    {
      "inputs": [],
      "stateMutability": "nonpayable",
      "type": "constructor"
    },
    {
      "anonymous": false,
      "inputs": [
        {
          "indexed": false,
          "internalType": "uint256",
          "name": "itemId",
          "type": "uint256"
        },
        {
          "indexed": false,
          "internalType": "uint256",
          "name": "nftId",
          "type": "uint256"
        },
        {
          "indexed": false,
          "internalType": "address",
          "name": "nftContract",
          "type": "address"
        },
        {
          "indexed": false,
          "internalType": "address payable",
          "name": "owner",
          "type": "address"
        },
        {
          "indexed": false,
          "internalType": "uint256",
          "name": "price",
          "type": "uint256"
        },
        {
          "indexed": false,
          "internalType": "bool",
          "name": "sold",
          "type": "bool"
        }
      ],
      "name": "MarketItemCreated",
      "type": "event"
    },
    {
      "inputs": [],
      "name": "getListingPrice",
      "outputs": [
        {
          "internalType": "uint256",
          "name": "",
          "type": "uint256"
        }
      ],
      "stateMutability": "view",
      "type": "function",
      "constant": true
    },
    {
      "inputs": [
        {
          "internalType": "address",
          "name": "nftContract",
          "type": "address"
        },
        {
          "internalType": "uint256",
          "name": "tokenId",
          "type": "uint256"
        }
      ],
      "name": "approved",
      "outputs": [],
      "stateMutability": "nonpayable",
      "type": "function"
    },
    {
      "inputs": [
        {
          "internalType": "address",
          "name": "nftContract",
          "type": "address"
        },
        {
          "internalType": "uint256",
          "name": "tokenId",
          "type": "uint256"
        },
        {
          "internalType": "uint256",
          "name": "price",
          "type": "uint256"
        }
      ],
      "name": "createMarketItem",
      "outputs": [],
      "stateMutability": "payable",
      "type": "function",
      "payable": true
    },
    {
      "inputs": [
        {
          "internalType": "address",
          "name": "nftContract",
          "type": "address"
        },
        {
          "internalType": "uint256",
          "name": "itemId",
          "type": "uint256"
        }
      ],
      "name": "sellMarketItem",
      "outputs": [],
      "stateMutability": "payable",
      "type": "function",
      "payable": true
    },
    {
      "inputs": [],
      "name": "fetchMarketItems",
      "outputs": [
        {
          "components": [
            {
              "internalType": "uint256",
              "name": "itemId",
              "type": "uint256"
            },
            {
              "internalType": "uint256",
              "name": "nftId",
              "type": "uint256"
            },
            {
              "internalType": "address",
              "name": "nftContract",
              "type": "address"
            },
            {
              "internalType": "address payable",
              "name": "owner",
              "type": "address"
            },
            {
              "internalType": "uint256",
              "name": "price",
              "type": "uint256"
            },
            {
              "internalType": "bool",
              "name": "sold",
              "type": "bool"
            }
          ],
          "internalType": "struct MusicMarket.marketItem[]",
          "name": "",
          "type": "tuple[]"
        }
      ],
      "stateMutability": "view",
      "type": "function",
      "constant": true
    },
    {
      "inputs": [],
      "name": "fetchMyNFTs",
      "outputs": [
        {
          "components": [
            {
              "internalType": "uint256",
              "name": "itemId",
              "type": "uint256"
            },
            {
              "internalType": "uint256",
              "name": "nftId",
              "type": "uint256"
            },
            {
              "internalType": "address",
              "name": "nftContract",
              "type": "address"
            },
            {
              "internalType": "address payable",
              "name": "owner",
              "type": "address"
            },
            {
              "internalType": "uint256",
              "name": "price",
              "type": "uint256"
            },
            {
              "internalType": "bool",
              "name": "sold",
              "type": "bool"
            }
          ],
          "internalType": "struct MusicMarket.marketItem[]",
          "name": "",
          "type": "tuple[]"
        }
      ],
      "stateMutability": "view",
      "type": "function",
      "constant": true
    },
    {
      "inputs": [],
      "name": "fetchMyItemsOnSale",
      "outputs": [
        {
          "components": [
            {
              "internalType": "uint256",
              "name": "itemId",
              "type": "uint256"
            },
            {
              "internalType": "uint256",
              "name": "nftId",
              "type": "uint256"
            },
            {
              "internalType": "address",
              "name": "nftContract",
              "type": "address"
            },
            {
              "internalType": "address payable",
              "name": "owner",
              "type": "address"
            },
            {
              "internalType": "uint256",
              "name": "price",
              "type": "uint256"
            },
            {
              "internalType": "bool",
              "name": "sold",
              "type": "bool"
            }
          ],
          "internalType": "struct MusicMarket.marketItem[]",
          "name": "",
          "type": "tuple[]"
        }
      ],
      "stateMutability": "view",
      "type": "function",
      "constant": true
    }
  ],
  "bytecode": "0x6080604052652d79883d200060045534801561001a57600080fd5b50600160008190555033600360006101000a81548173ffffffffffffffffffffffffffffffffffffffff021916908373ffffffffffffffffffffffffffffffffffffffff16021790555061187b806100736000396000f3fe6080604052600436106100705760003560e01c806358eb2df51161004e57806358eb2df5146100f6578063ae9eb1ed14610112578063b0916feb1461013d578063c14482841461015957610070565b80630f08efe01461007557806312e85585146100a0578063202e3740146100cb575b600080fd5b34801561008157600080fd5b5061008a610182565b604051610097919061124f565b60405180910390f35b3480156100ac57600080fd5b506100b56103c8565b6040516100c29190611280565b60405180910390f35b3480156100d757600080fd5b506100e06103d2565b6040516100ed919061124f565b60405180910390f35b610110600480360381019061010b91906112f8565b6106df565b005b34801561011e57600080fd5b506101276109d3565b604051610134919061124f565b60405180910390f35b6101576004803603810190610152919061134b565b610d20565b005b34801561016557600080fd5b50610180600480360381019061017b919061134b565b610f74565b005b606060006101906001611007565b9050600061019e6002611007565b826101a991906113ba565b905060008167ffffffffffffffff8111156101c7576101c66113ee565b5b60405190808252806020026020018201604052801561020057816020015b6101ed61102b565b8152602001906001900390816101e55790505b5090506000805b848110156103bd576000151560056000600184610224919061141d565b815260200190815260200160002060050160009054906101000a900460ff16151514156103aa5760006005600060018461025e919061141d565b81526020019081526020016000206000015490506000600560008381526020019081526020016000209050806040518060c001604052908160008201548152602001600182015481526020016002820160009054906101000a900473ffffffffffffffffffffffffffffffffffffffff1673ffffffffffffffffffffffffffffffffffffffff1673ffffffffffffffffffffffffffffffffffffffff1681526020016003820160009054906101000a900473ffffffffffffffffffffffffffffffffffffffff1673ffffffffffffffffffffffffffffffffffffffff1673ffffffffffffffffffffffffffffffffffffffff168152602001600482015481526020016005820160009054906101000a900460ff16151515158152505085858151811061038d5761038c611473565b5b60200260200101819052506001846103a5919061141d565b935050505b80806103b5906114a2565b915050610207565b508194505050505090565b6000600454905090565b606060006103e06001611007565b90506000805b82811015610487573373ffffffffffffffffffffffffffffffffffffffff1660056000600184610416919061141d565b815260200190815260200160002060030160009054906101000a900473ffffffffffffffffffffffffffffffffffffffff1673ffffffffffffffffffffffffffffffffffffffff16141561047457600182610471919061141d565b91505b808061047f906114a2565b9150506103e6565b5060008167ffffffffffffffff8111156104a4576104a36113ee565b5b6040519080825280602002602001820160405280156104dd57816020015b6104ca61102b565b8152602001906001900390816104c25790505b5090506000805b848110156106d4573373ffffffffffffffffffffffffffffffffffffffff1660056000600184610514919061141d565b815260200190815260200160002060030160009054906101000a900473ffffffffffffffffffffffffffffffffffffffff1673ffffffffffffffffffffffffffffffffffffffff1614156106c157600060056000600184610575919061141d565b81526020019081526020016000206000015490506000600560008381526020019081526020016000209050806040518060c001604052908160008201548152602001600182015481526020016002820160009054906101000a900473ffffffffffffffffffffffffffffffffffffffff1673ffffffffffffffffffffffffffffffffffffffff1673ffffffffffffffffffffffffffffffffffffffff1681526020016003820160009054906101000a900473ffffffffffffffffffffffffffffffffffffffff1673ffffffffffffffffffffffffffffffffffffffff1673ffffffffffffffffffffffffffffffffffffffff168152602001600482015481526020016005820160009054906101000a900460ff1615151515815250508585815181106106a4576106a3611473565b5b60200260200101819052506001846106bc919061141d565b935050505b80806106cc906114a2565b9150506104e4565b508194505050505090565b60026000541415610725576040517f08c379a000000000000000000000000000000000000000000000000000000000815260040161071c90611548565b60405180910390fd5b600260008190555060008111610770576040517f08c379a0000000000000000000000000000000000000000000000000000000008152600401610767906115b4565b60405180910390fd5b60045434146107b4576040517f08c379a00000000000000000000000000000000000000000000000000000000081526004016107ab90611646565b60405180910390fd5b6107be8383610f74565b6107c86001611015565b60006107d46001611007565b90506040518060c001604052808281526020018481526020018573ffffffffffffffffffffffffffffffffffffffff1681526020013373ffffffffffffffffffffffffffffffffffffffff1681526020018381526020016000151581525060056000838152602001908152602001600020600082015181600001556020820151816001015560408201518160020160006101000a81548173ffffffffffffffffffffffffffffffffffffffff021916908373ffffffffffffffffffffffffffffffffffffffff16021790555060608201518160030160006101000a81548173ffffffffffffffffffffffffffffffffffffffff021916908373ffffffffffffffffffffffffffffffffffffffff1602179055506080820151816004015560a08201518160050160006101000a81548160ff0219169083151502179055509050508373ffffffffffffffffffffffffffffffffffffffff166342842e0e3330866040518463ffffffff1660e01b815260040161095193929190611675565b600060405180830381600087803b15801561096b57600080fd5b505af115801561097f573d6000803e3d6000fd5b505050507f4a29ff6f650682addfdf8030b3eeb4610ec651b42d8603f2527633347f9489c9818486338660006040516109bd969594939291906116ca565b60405180910390a1506001600081905550505050565b606060006109e16001611007565b905060008060005b83811015610a8a573373ffffffffffffffffffffffffffffffffffffffff1660056000600184610a19919061141d565b815260200190815260200160002060030160009054906101000a900473ffffffffffffffffffffffffffffffffffffffff1673ffffffffffffffffffffffffffffffffffffffff161415610a7757600183610a74919061141d565b92505b8080610a82906114a2565b9150506109e9565b5060008267ffffffffffffffff811115610aa757610aa66113ee565b5b604051908082528060200260200182016040528015610ae057816020015b610acd61102b565b815260200190600190039081610ac55790505b50905060005b84811015610d15573373ffffffffffffffffffffffffffffffffffffffff1660056000600184610b16919061141d565b815260200190815260200160002060030160009054906101000a900473ffffffffffffffffffffffffffffffffffffffff1673ffffffffffffffffffffffffffffffffffffffff16148015610b9e57506000151560056000600184610b7b919061141d565b815260200190815260200160002060050160009054906101000a900460ff161515145b15610d0257600060056000600184610bb6919061141d565b81526020019081526020016000206000015490506000600560008381526020019081526020016000209050806040518060c001604052908160008201548152602001600182015481526020016002820160009054906101000a900473ffffffffffffffffffffffffffffffffffffffff1673ffffffffffffffffffffffffffffffffffffffff1673ffffffffffffffffffffffffffffffffffffffff1681526020016003820160009054906101000a900473ffffffffffffffffffffffffffffffffffffffff1673ffffffffffffffffffffffffffffffffffffffff1673ffffffffffffffffffffffffffffffffffffffff168152602001600482015481526020016005820160009054906101000a900460ff161515151581525050848681518110610ce557610ce4611473565b5b6020026020010181905250600185610cfd919061141d565b945050505b8080610d0d906114a2565b915050610ae6565b508094505050505090565b60026000541415610d66576040517f08c379a0000000000000000000000000000000000000000000000000000000008152600401610d5d90611548565b60405180910390fd5b600260008190555060006005600083815260200190815260200160002060040154905060006005600084815260200190815260200160002060010154905060006005600085815260200190815260200160002060030160009054906101000a900473ffffffffffffffffffffffffffffffffffffffff169050823414610e21576040517f08c379a0000000000000000000000000000000000000000000000000000000008152600401610e189061179d565b60405180910390fd5b8073ffffffffffffffffffffffffffffffffffffffff166108fc349081150290604051600060405180830381858888f19350505050158015610e67573d6000803e3d6000fd5b508473ffffffffffffffffffffffffffffffffffffffff166342842e0e3033856040518463ffffffff1660e01b8152600401610ea593929190611675565b600060405180830381600087803b158015610ebf57600080fd5b505af1158015610ed3573d6000803e3d6000fd5b50505050336005600086815260200190815260200160002060030160006101000a81548173ffffffffffffffffffffffffffffffffffffffff021916908373ffffffffffffffffffffffffffffffffffffffff16021790555060016005600086815260200190815260200160002060050160006101000a81548160ff021916908315150217905550610f656002611015565b50505060016000819055505050565b8173ffffffffffffffffffffffffffffffffffffffff1663095ea7b3600360009054906101000a900473ffffffffffffffffffffffffffffffffffffffff16836040518363ffffffff1660e01b8152600401610fd192919061181c565b600060405180830381600087803b158015610feb57600080fd5b505af1158015610fff573d6000803e3d6000fd5b505050505050565b600081600001549050919050565b6001816000016000828254019250508190555050565b6040518060c001604052806000815260200160008152602001600073ffffffffffffffffffffffffffffffffffffffff168152602001600073ffffffffffffffffffffffffffffffffffffffff168152602001600081526020016000151581525090565b600081519050919050565b600082825260208201905092915050565b6000819050602082019050919050565b6000819050919050565b6110ce816110bb565b82525050565b600073ffffffffffffffffffffffffffffffffffffffff82169050919050565b60006110ff826110d4565b9050919050565b61110f816110f4565b82525050565b6000611120826110d4565b9050919050565b61113081611115565b82525050565b60008115159050919050565b61114b81611136565b82525050565b60c08201600082015161116760008501826110c5565b50602082015161117a60208501826110c5565b50604082015161118d6040850182611106565b5060608201516111a06060850182611127565b5060808201516111b360808501826110c5565b5060a08201516111c660a0850182611142565b50505050565b60006111d88383611151565b60c08301905092915050565b6000602082019050919050565b60006111fc8261108f565b611206818561109a565b9350611211836110ab565b8060005b8381101561124257815161122988826111cc565b9750611234836111e4565b925050600181019050611215565b5085935050505092915050565b6000602082019050818103600083015261126981846111f1565b905092915050565b61127a816110bb565b82525050565b60006020820190506112956000830184611271565b92915050565b600080fd5b6112a9816110f4565b81146112b457600080fd5b50565b6000813590506112c6816112a0565b92915050565b6112d5816110bb565b81146112e057600080fd5b50565b6000813590506112f2816112cc565b92915050565b6000806000606084860312156113115761131061129b565b5b600061131f868287016112b7565b9350506020611330868287016112e3565b9250506040611341868287016112e3565b9150509250925092565b600080604083850312156113625761136161129b565b5b6000611370858286016112b7565b9250506020611381858286016112e3565b9150509250929050565b7f4e487b7100000000000000000000000000000000000000000000000000000000600052601160045260246000fd5b60006113c5826110bb565b91506113d0836110bb565b9250828210156113e3576113e261138b565b5b828203905092915050565b7f4e487b7100000000000000000000000000000000000000000000000000000000600052604160045260246000fd5b6000611428826110bb565b9150611433836110bb565b9250827fffffffffffffffffffffffffffffffffffffffffffffffffffffffffffffffff038211156114685761146761138b565b5b828201905092915050565b7f4e487b7100000000000000000000000000000000000000000000000000000000600052603260045260246000fd5b60006114ad826110bb565b91507fffffffffffffffffffffffffffffffffffffffffffffffffffffffffffffffff8214156114e0576114df61138b565b5b600182019050919050565b600082825260208201905092915050565b7f5265656e7472616e637947756172643a207265656e7472616e742063616c6c00600082015250565b6000611532601f836114eb565b915061153d826114fc565b602082019050919050565b6000602082019050818103600083015261156181611525565b9050919050565b7f5072696365206d7573742062652067726561746572207468616e203000000000600082015250565b600061159e601c836114eb565b91506115a982611568565b602082019050919050565b600060208201905081810360008301526115cd81611591565b9050919050565b7f416d6f756e74206d75736820626520657175616c20746f206c697374696e672060008201527f7072696365000000000000000000000000000000000000000000000000000000602082015250565b60006116306025836114eb565b915061163b826115d4565b604082019050919050565b6000602082019050818103600083015261165f81611623565b9050919050565b61166f816110f4565b82525050565b600060608201905061168a6000830186611666565b6116976020830185611666565b6116a46040830184611271565b949350505050565b6116b581611115565b82525050565b6116c481611136565b82525050565b600060c0820190506116df6000830189611271565b6116ec6020830188611271565b6116f96040830187611666565b61170660608301866116ac565b6117136080830185611271565b61172060a08301846116bb565b979650505050505050565b7f506c656173652070617920636f7272656374207072696365206f66207468652060008201527f4e46540000000000000000000000000000000000000000000000000000000000602082015250565b60006117876023836114eb565b91506117928261172b565b604082019050919050565b600060208201905081810360008301526117b68161177a565b9050919050565b6000819050919050565b60006117e26117dd6117d8846110d4565b6117bd565b6110d4565b9050919050565b60006117f4826117c7565b9050919050565b6000611806826117e9565b9050919050565b611816816117fb565b82525050565b6000604082019050611831600083018561180d565b61183e6020830184611271565b939250505056fea26469706673582212208df35ae15fb32f46dbc93ff09ad8eb5c830063f79220fea4306086295bbce87464736f6c634300080b0033",
  "immutableReferences": {},
  "source": "// SPDX-License-Identifier: SEE LICENSE IN LICENSE\npragma solidity ^0.8.4;\n\nimport \"@openzeppelin/contracts/token/ERC721/ERC721.sol\";\nimport \"@openzeppelin/contracts/utils/Counters.sol\";\nimport \"@openzeppelin/contracts/security/ReentrancyGuard.sol\";\n\ncontract MusicMarket is ReentrancyGuard {\n    using Counters for Counters.Counter;\n\n    // _marketItemId is a unique id provided to every smart contract.\n    Counters.Counter private _marketItemId;\n\n    //Track total items sold.\n    Counters.Counter private _itemSold;\n\n    address payable owner; //Admin so that he receieve commisions, for using his network\n    uint256 listingPrice = 0.00005 ether; //Listing fee or the commision for publishing NFT\n\n    constructor() {\n        //Set owner for the smart contract\n        owner = payable(msg.sender);\n    }\n\n    struct marketItem {\n        uint itemId; // Id given to a marketplace listed item\n        uint nftId; // Id of the nft as in MusicNft.sol\n        address nftContract; // Address fo the MusicNft\n        address payable owner; //Owner of the music\n        uint price;\n        bool sold;\n    }\n\n    mapping(uint256 => marketItem) marketIdToItem;\n\n    event MarketItemCreated(\n        uint itemId,\n        uint nftId,\n        address nftContract,\n        address payable owner,\n        uint price,\n        bool sold\n    );\n\n    function getListingPrice() public view returns (uint256) {\n        return listingPrice;\n    }\n    function approved (address nftContract,uint256 tokenId) public{\n        IERC721(nftContract).approve(owner,tokenId);   \n    }\n    function createMarketItem(\n        address nftContract,\n        uint256 tokenId,\n        uint256 price\n    ) public payable nonReentrant {\n        require(price > 0, \"Price must be greater than 0\");\n        require(\n            msg.value == listingPrice,\n            \"Amount mush be equal to listing price\"\n        );\n        approved(nftContract, tokenId);\n        _marketItemId.increment();\n        uint256 itemId = _marketItemId.current();\n\n        marketIdToItem[itemId] = marketItem(\n            itemId,\n            tokenId,\n            nftContract,\n            payable(msg.sender), // Person listing the nft is the owner\n            price,\n            false\n        );\n\n        IERC721(nftContract).safeTransferFrom(\n            msg.sender,\n            address(this),\n            tokenId\n        );\n        //IERC721(nftContract).approve(address(this),tokenId);\n        emit MarketItemCreated(\n            itemId,\n            tokenId,\n            nftContract,\n            payable(msg.sender),\n            price,\n            false\n        );\n    }\n\n    function sellMarketItem(address nftContract, uint itemId)\n        public\n        payable\n        nonReentrant\n    {\n        uint256 price = marketIdToItem[itemId].price;\n        uint tokenId = marketIdToItem[itemId].nftId;\n        address payable nft_owner = marketIdToItem[itemId].owner;\n\n        require(msg.value == price, \"Please pay correct price of the NFT\");\n        nft_owner.transfer(msg.value); //Trsnsfer money to buyer->owner\n\n        IERC721(nftContract).safeTransferFrom(\n            address(this),\n            msg.sender,\n            tokenId\n        ); //Transfer music from owner->buyer\n\n        marketIdToItem[itemId].owner = payable(msg.sender); // Change owner\n        marketIdToItem[itemId].sold = true; //Set market item sold to true\n        _itemSold.increment();\n    }\n\n    function fetchMarketItems() public view returns (marketItem[] memory) {\n        uint itemCount = _marketItemId.current();\n        uint unsoldItemCount = itemCount - _itemSold.current();\n\n        marketItem[] memory items = new marketItem[](unsoldItemCount);\n        uint currentIndex = 0;\n\n        for (uint i = 0; i < itemCount; i++) {\n            if (marketIdToItem[i + 1].sold == false) {\n                uint currentId = marketIdToItem[i + 1].itemId;\n                marketItem storage currentItem = marketIdToItem[currentId];\n                items[currentIndex] = currentItem;\n                currentIndex += 1;\n            }\n        }\n        return items;\n    }\n\n    function fetchMyNFTs() public view returns (marketItem[] memory) {\n        //get total number of items ever created\n        uint totalItemCount = _marketItemId.current();\n\n        uint itemCount = 0;\n        for (uint i = 0; i < totalItemCount; i++) {\n            //get only the items that this user has bought/is the owner\n            if (marketIdToItem[i + 1].owner == msg.sender) {\n                itemCount += 1; //total length\n            }\n        }\n\n        marketItem[] memory items = new marketItem[](itemCount);\n        uint currentIndex = 0;\n        for (uint i = 0; i < totalItemCount; i++) {\n            if (marketIdToItem[i + 1].owner == msg.sender) {\n                uint currentId = marketIdToItem[i + 1].itemId;\n                marketItem storage currentItem = marketIdToItem[currentId];\n                items[currentIndex] = currentItem;\n                currentIndex += 1;\n            }\n        }\n        return items;\n    }\n\n    function fetchMyItemsOnSale() public view returns (marketItem[] memory) {\n        //get total number of items ever created\n        uint totalItemCount = _marketItemId.current();\n\n        uint itemCount = 0;\n        uint currentIndex = 0;\n\n        for (uint i = 0; i < totalItemCount; i++) {\n            //get only the items that this user has bought/is the owner\n            if (marketIdToItem[i + 1].owner == msg.sender) {\n                itemCount += 1; //total length\n            }\n        }\n\n        marketItem[] memory items = new marketItem[](itemCount);\n        for (uint i = 0; i < totalItemCount; i++) {\n            if (marketIdToItem[i + 1].owner == msg.sender && marketIdToItem[i + 1].sold == false) {\n                uint currentId = marketIdToItem[i + 1].itemId;\n                marketItem storage currentItem = marketIdToItem[currentId];\n                items[currentIndex] = currentItem;\n                currentIndex += 1;\n            }\n        }\n        return items;\n    }\n}\n",
  "sourcePath": "/home/hashcat/Desktop/nftnft/NFT/contracts/MusicMarket.sol",
  "compiler": {
    "name": "solc",
    "version": "0.8.11+commit.d7f03943.Emscripten.clang"
  },
  "schemaVersion": "3.4.6",
  "updatedAt": "2022-04-10T14:24:19.858Z",
  "networkType": "ethereum",
  "devdoc": {
    "kind": "dev",
    "methods": {},
    "version": 1
  },
  "userdoc": {
    "kind": "user",
    "methods": {},
    "version": 1
  }
}