{
  "contractName": "MusicMarket",
  "abi": [
    {
      "inputs": [],
      "stateMutability": "nonpayable",
      "type": "constructor"
    },
    {
      "anonymous": false,
      "inputs": [
        {
          "indexed": false,
          "internalType": "uint256",
          "name": "itemId",
          "type": "uint256"
        },
        {
          "indexed": false,
          "internalType": "uint256",
          "name": "nftId",
          "type": "uint256"
        },
        {
          "indexed": false,
          "internalType": "address",
          "name": "nftContract",
          "type": "address"
        },
        {
          "indexed": false,
          "internalType": "address payable",
          "name": "owner",
          "type": "address"
        },
        {
          "indexed": false,
          "internalType": "uint256",
          "name": "price",
          "type": "uint256"
        },
        {
          "indexed": false,
          "internalType": "bool",
          "name": "sold",
          "type": "bool"
        }
      ],
      "name": "MarketItemCreated",
      "type": "event"
    },
    {
      "inputs": [],
      "name": "getListingPrice",
      "outputs": [
        {
          "internalType": "uint256",
          "name": "",
          "type": "uint256"
        }
      ],
      "stateMutability": "view",
      "type": "function",
      "constant": true
    },
    {
      "inputs": [
        {
          "internalType": "address",
          "name": "nftContract",
          "type": "address"
        },
        {
          "internalType": "uint256",
          "name": "tokenId",
          "type": "uint256"
        },
        {
          "internalType": "uint256",
          "name": "price",
          "type": "uint256"
        }
      ],
      "name": "createMarketItem",
      "outputs": [],
      "stateMutability": "payable",
      "type": "function",
      "payable": true
    },
    {
      "inputs": [
        {
          "internalType": "address",
          "name": "nftContract",
          "type": "address"
        },
        {
          "internalType": "uint256",
          "name": "itemId",
          "type": "uint256"
        }
      ],
      "name": "sellMarketItem",
      "outputs": [],
      "stateMutability": "payable",
      "type": "function",
      "payable": true
    },
    {
      "inputs": [],
      "name": "fetchMarketItems",
      "outputs": [
        {
          "components": [
            {
              "internalType": "uint256",
              "name": "itemId",
              "type": "uint256"
            },
            {
              "internalType": "uint256",
              "name": "nftId",
              "type": "uint256"
            },
            {
              "internalType": "address",
              "name": "nftContract",
              "type": "address"
            },
            {
              "internalType": "address payable",
              "name": "owner",
              "type": "address"
            },
            {
              "internalType": "uint256",
              "name": "price",
              "type": "uint256"
            },
            {
              "internalType": "bool",
              "name": "sold",
              "type": "bool"
            }
          ],
          "internalType": "struct MusicMarket.marketItem[]",
          "name": "",
          "type": "tuple[]"
        }
      ],
      "stateMutability": "view",
      "type": "function",
      "constant": true
    },
    {
      "inputs": [],
      "name": "fetchMyNFTs",
      "outputs": [
        {
          "components": [
            {
              "internalType": "uint256",
              "name": "itemId",
              "type": "uint256"
            },
            {
              "internalType": "uint256",
              "name": "nftId",
              "type": "uint256"
            },
            {
              "internalType": "address",
              "name": "nftContract",
              "type": "address"
            },
            {
              "internalType": "address payable",
              "name": "owner",
              "type": "address"
            },
            {
              "internalType": "uint256",
              "name": "price",
              "type": "uint256"
            },
            {
              "internalType": "bool",
              "name": "sold",
              "type": "bool"
            }
          ],
          "internalType": "struct MusicMarket.marketItem[]",
          "name": "",
          "type": "tuple[]"
        }
      ],
      "stateMutability": "view",
      "type": "function",
      "constant": true
    },
    {
      "inputs": [],
      "name": "fetchMyItemsOnSale",
      "outputs": [
        {
          "components": [
            {
              "internalType": "uint256",
              "name": "itemId",
              "type": "uint256"
            },
            {
              "internalType": "uint256",
              "name": "nftId",
              "type": "uint256"
            },
            {
              "internalType": "address",
              "name": "nftContract",
              "type": "address"
            },
            {
              "internalType": "address payable",
              "name": "owner",
              "type": "address"
            },
            {
              "internalType": "uint256",
              "name": "price",
              "type": "uint256"
            },
            {
              "internalType": "bool",
              "name": "sold",
              "type": "bool"
            }
          ],
          "internalType": "struct MusicMarket.marketItem[]",
          "name": "",
          "type": "tuple[]"
        }
      ],
      "stateMutability": "view",
      "type": "function",
      "constant": true
    }
  ],
  "bytecode": "0x6080604052652d79883d200060045534801561001a57600080fd5b50600160008190555033600360006101000a81548173ffffffffffffffffffffffffffffffffffffffff021916908373ffffffffffffffffffffffffffffffffffffffff1602179055506116a3806100736000396000f3fe6080604052600436106100555760003560e01c80630f08efe01461005a57806312e8558514610085578063202e3740146100b057806358eb2df5146100db578063ae9eb1ed146100f7578063b0916feb14610122575b600080fd5b34801561006657600080fd5b5061006f61013e565b60405161007c91906110ff565b60405180910390f35b34801561009157600080fd5b5061009a610384565b6040516100a79190611130565b60405180910390f35b3480156100bc57600080fd5b506100c561038e565b6040516100d291906110ff565b60405180910390f35b6100f560048036038101906100f091906111a8565b61069b565b005b34801561010357600080fd5b5061010c610916565b60405161011991906110ff565b60405180910390f35b61013c600480360381019061013791906111fb565b610c63565b005b6060600061014c6001610eb7565b9050600061015a6002610eb7565b82610165919061126a565b905060008167ffffffffffffffff8111156101835761018261129e565b5b6040519080825280602002602001820160405280156101bc57816020015b6101a9610edb565b8152602001906001900390816101a15790505b5090506000805b848110156103795760001515600560006001846101e091906112cd565b815260200190815260200160002060050160009054906101000a900460ff16151514156103665760006005600060018461021a91906112cd565b81526020019081526020016000206000015490506000600560008381526020019081526020016000209050806040518060c001604052908160008201548152602001600182015481526020016002820160009054906101000a900473ffffffffffffffffffffffffffffffffffffffff1673ffffffffffffffffffffffffffffffffffffffff1673ffffffffffffffffffffffffffffffffffffffff1681526020016003820160009054906101000a900473ffffffffffffffffffffffffffffffffffffffff1673ffffffffffffffffffffffffffffffffffffffff1673ffffffffffffffffffffffffffffffffffffffff168152602001600482015481526020016005820160009054906101000a900460ff16151515158152505085858151811061034957610348611323565b5b602002602001018190525060018461036191906112cd565b935050505b808061037190611352565b9150506101c3565b508194505050505090565b6000600454905090565b6060600061039c6001610eb7565b90506000805b82811015610443573373ffffffffffffffffffffffffffffffffffffffff16600560006001846103d291906112cd565b815260200190815260200160002060030160009054906101000a900473ffffffffffffffffffffffffffffffffffffffff1673ffffffffffffffffffffffffffffffffffffffff1614156104305760018261042d91906112cd565b91505b808061043b90611352565b9150506103a2565b5060008167ffffffffffffffff8111156104605761045f61129e565b5b60405190808252806020026020018201604052801561049957816020015b610486610edb565b81526020019060019003908161047e5790505b5090506000805b84811015610690573373ffffffffffffffffffffffffffffffffffffffff16600560006001846104d091906112cd565b815260200190815260200160002060030160009054906101000a900473ffffffffffffffffffffffffffffffffffffffff1673ffffffffffffffffffffffffffffffffffffffff16141561067d5760006005600060018461053191906112cd565b81526020019081526020016000206000015490506000600560008381526020019081526020016000209050806040518060c001604052908160008201548152602001600182015481526020016002820160009054906101000a900473ffffffffffffffffffffffffffffffffffffffff1673ffffffffffffffffffffffffffffffffffffffff1673ffffffffffffffffffffffffffffffffffffffff1681526020016003820160009054906101000a900473ffffffffffffffffffffffffffffffffffffffff1673ffffffffffffffffffffffffffffffffffffffff1673ffffffffffffffffffffffffffffffffffffffff168152602001600482015481526020016005820160009054906101000a900460ff1615151515815250508585815181106106605761065f611323565b5b602002602001018190525060018461067891906112cd565b935050505b808061068890611352565b9150506104a0565b508194505050505090565b600260005414156106e1576040517f08c379a00000000000000000000000000000000000000000000000000000000081526004016106d8906113f8565b60405180910390fd5b60026000819055506000811161072c576040517f08c379a000000000000000000000000000000000000000000000000000000000815260040161072390611464565b60405180910390fd5b6004543414610770576040517f08c379a0000000000000000000000000000000000000000000000000000000008152600401610767906114f6565b60405180910390fd5b61077a6001610ec5565b60006107866001610eb7565b90506040518060c001604052808281526020018481526020018573ffffffffffffffffffffffffffffffffffffffff1681526020013373ffffffffffffffffffffffffffffffffffffffff1681526020018381526020016000151581525060056000838152602001908152602001600020600082015181600001556020820151816001015560408201518160020160006101000a81548173ffffffffffffffffffffffffffffffffffffffff021916908373ffffffffffffffffffffffffffffffffffffffff16021790555060608201518160030160006101000a81548173ffffffffffffffffffffffffffffffffffffffff021916908373ffffffffffffffffffffffffffffffffffffffff1602179055506080820151816004015560a08201518160050160006101000a81548160ff0219169083151502179055509050507f4a29ff6f650682addfdf8030b3eeb4610ec651b42d8603f2527633347f9489c98184863386600060405161090096959493929190611543565b60405180910390a1506001600081905550505050565b606060006109246001610eb7565b905060008060005b838110156109cd573373ffffffffffffffffffffffffffffffffffffffff166005600060018461095c91906112cd565b815260200190815260200160002060030160009054906101000a900473ffffffffffffffffffffffffffffffffffffffff1673ffffffffffffffffffffffffffffffffffffffff1614156109ba576001836109b791906112cd565b92505b80806109c590611352565b91505061092c565b5060008267ffffffffffffffff8111156109ea576109e961129e565b5b604051908082528060200260200182016040528015610a2357816020015b610a10610edb565b815260200190600190039081610a085790505b50905060005b84811015610c58573373ffffffffffffffffffffffffffffffffffffffff1660056000600184610a5991906112cd565b815260200190815260200160002060030160009054906101000a900473ffffffffffffffffffffffffffffffffffffffff1673ffffffffffffffffffffffffffffffffffffffff16148015610ae157506000151560056000600184610abe91906112cd565b815260200190815260200160002060050160009054906101000a900460ff161515145b15610c4557600060056000600184610af991906112cd565b81526020019081526020016000206000015490506000600560008381526020019081526020016000209050806040518060c001604052908160008201548152602001600182015481526020016002820160009054906101000a900473ffffffffffffffffffffffffffffffffffffffff1673ffffffffffffffffffffffffffffffffffffffff1673ffffffffffffffffffffffffffffffffffffffff1681526020016003820160009054906101000a900473ffffffffffffffffffffffffffffffffffffffff1673ffffffffffffffffffffffffffffffffffffffff1673ffffffffffffffffffffffffffffffffffffffff168152602001600482015481526020016005820160009054906101000a900460ff161515151581525050848681518110610c2857610c27611323565b5b6020026020010181905250600185610c4091906112cd565b945050505b8080610c5090611352565b915050610a29565b508094505050505090565b60026000541415610ca9576040517f08c379a0000000000000000000000000000000000000000000000000000000008152600401610ca0906113f8565b60405180910390fd5b600260008190555060006005600083815260200190815260200160002060040154905060006005600084815260200190815260200160002060010154905060006005600085815260200190815260200160002060030160009054906101000a900473ffffffffffffffffffffffffffffffffffffffff169050823414610d64576040517f08c379a0000000000000000000000000000000000000000000000000000000008152600401610d5b90611616565b60405180910390fd5b8073ffffffffffffffffffffffffffffffffffffffff166108fc349081150290604051600060405180830381858888f19350505050158015610daa573d6000803e3d6000fd5b508473ffffffffffffffffffffffffffffffffffffffff166342842e0e3033856040518463ffffffff1660e01b8152600401610de893929190611636565b600060405180830381600087803b158015610e0257600080fd5b505af1158015610e16573d6000803e3d6000fd5b50505050336005600086815260200190815260200160002060030160006101000a81548173ffffffffffffffffffffffffffffffffffffffff021916908373ffffffffffffffffffffffffffffffffffffffff16021790555060016005600086815260200190815260200160002060050160006101000a81548160ff021916908315150217905550610ea86002610ec5565b50505060016000819055505050565b600081600001549050919050565b6001816000016000828254019250508190555050565b6040518060c001604052806000815260200160008152602001600073ffffffffffffffffffffffffffffffffffffffff168152602001600073ffffffffffffffffffffffffffffffffffffffff168152602001600081526020016000151581525090565b600081519050919050565b600082825260208201905092915050565b6000819050602082019050919050565b6000819050919050565b610f7e81610f6b565b82525050565b600073ffffffffffffffffffffffffffffffffffffffff82169050919050565b6000610faf82610f84565b9050919050565b610fbf81610fa4565b82525050565b6000610fd082610f84565b9050919050565b610fe081610fc5565b82525050565b60008115159050919050565b610ffb81610fe6565b82525050565b60c0820160008201516110176000850182610f75565b50602082015161102a6020850182610f75565b50604082015161103d6040850182610fb6565b5060608201516110506060850182610fd7565b5060808201516110636080850182610f75565b5060a082015161107660a0850182610ff2565b50505050565b60006110888383611001565b60c08301905092915050565b6000602082019050919050565b60006110ac82610f3f565b6110b68185610f4a565b93506110c183610f5b565b8060005b838110156110f25781516110d9888261107c565b97506110e483611094565b9250506001810190506110c5565b5085935050505092915050565b6000602082019050818103600083015261111981846110a1565b905092915050565b61112a81610f6b565b82525050565b60006020820190506111456000830184611121565b92915050565b600080fd5b61115981610fa4565b811461116457600080fd5b50565b60008135905061117681611150565b92915050565b61118581610f6b565b811461119057600080fd5b50565b6000813590506111a28161117c565b92915050565b6000806000606084860312156111c1576111c061114b565b5b60006111cf86828701611167565b93505060206111e086828701611193565b92505060406111f186828701611193565b9150509250925092565b600080604083850312156112125761121161114b565b5b600061122085828601611167565b925050602061123185828601611193565b9150509250929050565b7f4e487b7100000000000000000000000000000000000000000000000000000000600052601160045260246000fd5b600061127582610f6b565b915061128083610f6b565b9250828210156112935761129261123b565b5b828203905092915050565b7f4e487b7100000000000000000000000000000000000000000000000000000000600052604160045260246000fd5b60006112d882610f6b565b91506112e383610f6b565b9250827fffffffffffffffffffffffffffffffffffffffffffffffffffffffffffffffff038211156113185761131761123b565b5b828201905092915050565b7f4e487b7100000000000000000000000000000000000000000000000000000000600052603260045260246000fd5b600061135d82610f6b565b91507fffffffffffffffffffffffffffffffffffffffffffffffffffffffffffffffff8214156113905761138f61123b565b5b600182019050919050565b600082825260208201905092915050565b7f5265656e7472616e637947756172643a207265656e7472616e742063616c6c00600082015250565b60006113e2601f8361139b565b91506113ed826113ac565b602082019050919050565b60006020820190508181036000830152611411816113d5565b9050919050565b7f5072696365206d7573742062652067726561746572207468616e203000000000600082015250565b600061144e601c8361139b565b915061145982611418565b602082019050919050565b6000602082019050818103600083015261147d81611441565b9050919050565b7f416d6f756e74206d75736820626520657175616c20746f206c697374696e672060008201527f7072696365000000000000000000000000000000000000000000000000000000602082015250565b60006114e060258361139b565b91506114eb82611484565b604082019050919050565b6000602082019050818103600083015261150f816114d3565b9050919050565b61151f81610fa4565b82525050565b61152e81610fc5565b82525050565b61153d81610fe6565b82525050565b600060c0820190506115586000830189611121565b6115656020830188611121565b6115726040830187611516565b61157f6060830186611525565b61158c6080830185611121565b61159960a0830184611534565b979650505050505050565b7f506c656173652070617920636f7272656374207072696365206f66207468652060008201527f4e46540000000000000000000000000000000000000000000000000000000000602082015250565b600061160060238361139b565b915061160b826115a4565b604082019050919050565b6000602082019050818103600083015261162f816115f3565b9050919050565b600060608201905061164b6000830186611516565b6116586020830185611516565b6116656040830184611121565b94935050505056fea264697066735822122034df01a217baeb9958c253de95b0f59b77c0ee53f144f05c7c172a23e52a713764736f6c634300080b0033",
  "immutableReferences": {},
  "source": "// SPDX-License-Identifier: SEE LICENSE IN LICENSE\npragma solidity ^0.8.4;\n\nimport \"@openzeppelin/contracts/token/ERC721/ERC721.sol\";\nimport \"@openzeppelin/contracts/utils/Counters.sol\";\nimport \"@openzeppelin/contracts/security/ReentrancyGuard.sol\";\n\ncontract MusicMarket is ReentrancyGuard {\n    using Counters for Counters.Counter;\n\n    // _marketItemId is a unique id provided to every smart contract.\n    Counters.Counter private _marketItemId;\n\n    //Track total items sold.\n    Counters.Counter private _itemSold;\n\n    address payable owner; //Admin so that he receieve commisions, for using his network\n    uint256 listingPrice = 0.00005 ether; //Listing fee or the commision for publishing NFT\n\n    constructor() {\n        //Set owner for the smart contract\n        owner = payable(msg.sender);\n    }\n\n    struct marketItem {\n        uint itemId; // Id given to a marketplace listed item\n        uint nftId; // Id of the nft as in MusicNft.sol\n        address nftContract; // Address fo the MusicNft\n        address payable owner; //Owner of the music\n        uint price;\n        bool sold;\n    }\n\n    mapping(uint256 => marketItem) marketIdToItem;\n    \n    event MarketItemCreated(\n        uint itemId,\n        uint nftId,\n        address nftContract,\n        address payable owner,\n        uint price,\n        bool sold\n    );\n\n    function getListingPrice() public view returns (uint256) {\n        return listingPrice;\n    }\n\n    function createMarketItem(\n        address nftContract,\n        uint256 tokenId,\n        uint256 price\n    ) public payable nonReentrant {\n        require(price > 0, \"Price must be greater than 0\");\n        require(\n            msg.value == listingPrice,\n            \"Amount mush be equal to listing price\"\n        );\n        _marketItemId.increment();\n        uint256 itemId = _marketItemId.current();\n\n        marketIdToItem[itemId] = marketItem(\n            itemId,\n            tokenId,\n            nftContract,\n            payable(msg.sender),\n            price,\n            false\n        );\n        emit MarketItemCreated(\n            itemId,\n            tokenId,\n            nftContract,\n            payable(msg.sender),\n            price,\n            false\n        );\n    }\n\n    function sellMarketItem(address nftContract, uint itemId)\n        public\n        payable\n        nonReentrant\n    {\n        uint256 price = marketIdToItem[itemId].price;\n        uint tokenId = marketIdToItem[itemId].nftId;\n        address payable nft_owner = marketIdToItem[itemId].owner;\n\n        require(msg.value == price, \"Please pay correct price of the NFT\");\n        nft_owner.transfer(msg.value); //Trsnsfer money to buyer->owner\n\n        IERC721(nftContract).safeTransferFrom(\n            address(this),\n            msg.sender,\n            tokenId\n        ); //Transfer music from owner->buyer\n\n        marketIdToItem[itemId].owner = payable(msg.sender); // Change owner\n        marketIdToItem[itemId].sold = true; //Set market item sold to true\n        _itemSold.increment();\n    }\n\n    function fetchMarketItems() public view returns (marketItem[] memory) {\n        uint itemCount = _marketItemId.current();\n        uint unsoldItemCount = itemCount - _itemSold.current();\n\n        marketItem[] memory items = new marketItem[](unsoldItemCount);\n        uint currentIndex = 0;\n\n        for (uint i = 0; i < itemCount; i++) {\n            if (marketIdToItem[i + 1].sold == false) {\n                uint currentId = marketIdToItem[i + 1].itemId;\n                marketItem storage currentItem = marketIdToItem[currentId];\n                items[currentIndex] = currentItem;\n                currentIndex += 1;\n            }\n        }\n        return items;\n    }\n\n    function fetchMyNFTs() public view returns (marketItem[] memory) {\n        //get total number of items ever created\n        uint totalItemCount = _marketItemId.current();\n\n        uint itemCount = 0;\n        for (uint i = 0; i < totalItemCount; i++) {\n            //get only the items that this user has bought/is the owner\n            if (marketIdToItem[i + 1].owner == msg.sender) {\n                itemCount += 1; //total length\n            }\n        }\n\n        marketItem[] memory items = new marketItem[](itemCount);\n        uint currentIndex = 0;\n        for (uint i = 0; i < totalItemCount; i++) {\n            if (marketIdToItem[i + 1].owner == msg.sender) {\n                uint currentId = marketIdToItem[i + 1].itemId;\n                marketItem storage currentItem = marketIdToItem[currentId];\n                items[currentIndex] = currentItem;\n                currentIndex += 1;\n            }\n        }\n        return items;\n    }\n\n    function fetchMyItemsOnSale() public view returns (marketItem[] memory) {\n        //get total number of items ever created\n        uint totalItemCount = _marketItemId.current();\n\n        uint itemCount = 0;\n        uint currentIndex = 0;\n\n        for (uint i = 0; i < totalItemCount; i++) {\n            //get only the items that this user has bought/is the owner\n            if (marketIdToItem[i + 1].owner == msg.sender) {\n                itemCount += 1; //total length\n            }\n        }\n\n        marketItem[] memory items = new marketItem[](itemCount);\n        for (uint i = 0; i < totalItemCount; i++) {\n            if (marketIdToItem[i + 1].owner == msg.sender && marketIdToItem[i + 1].sold == false) {\n                uint currentId = marketIdToItem[i + 1].itemId;\n                marketItem storage currentItem = marketIdToItem[currentId];\n                items[currentIndex] = currentItem;\n                currentIndex += 1;\n            }\n        }\n        return items;\n    }\n}\n",
  "sourcePath": "/home/rhythm/Documents/NFT/contracts/MusicMarket.sol",
  "compiler": {
    "name": "solc",
    "version": "0.8.11+commit.d7f03943.Emscripten.clang"
  },
  "schemaVersion": "3.4.7",
  "updatedAt": "2022-05-01T06:19:34.423Z",
  "networkType": "ethereum",
  "devdoc": {
    "kind": "dev",
    "methods": {},
    "version": 1
  },
  "userdoc": {
    "kind": "user",
    "methods": {},
    "version": 1
  }
}