{
  "contractName": "MusicMarket",
  "abi": [
    {
      "inputs": [],
      "stateMutability": "nonpayable",
      "type": "constructor"
    },
    {
      "anonymous": false,
      "inputs": [
        {
          "indexed": false,
          "internalType": "uint256",
          "name": "itemId",
          "type": "uint256"
        },
        {
          "indexed": false,
          "internalType": "uint256",
          "name": "nftId",
          "type": "uint256"
        },
        {
          "indexed": false,
          "internalType": "address",
          "name": "nftContract",
          "type": "address"
        },
        {
          "indexed": false,
          "internalType": "address payable",
          "name": "owner",
          "type": "address"
        },
        {
          "indexed": false,
          "internalType": "uint256",
          "name": "price",
          "type": "uint256"
        },
        {
          "indexed": false,
          "internalType": "bool",
          "name": "sold",
          "type": "bool"
        }
      ],
      "name": "MarketItemCreated",
      "type": "event"
    },
    {
      "inputs": [],
      "name": "getListingPrice",
      "outputs": [
        {
          "internalType": "uint256",
          "name": "",
          "type": "uint256"
        }
      ],
      "stateMutability": "view",
      "type": "function",
      "constant": true
    },
    {
      "inputs": [
        {
          "internalType": "address",
          "name": "nftContract",
          "type": "address"
        },
        {
          "internalType": "uint256",
          "name": "tokenId",
          "type": "uint256"
        },
        {
          "internalType": "uint256",
          "name": "price",
          "type": "uint256"
        }
      ],
      "name": "createMarketItem",
      "outputs": [],
      "stateMutability": "payable",
      "type": "function",
      "payable": true
    },
    {
      "inputs": [
        {
          "internalType": "address",
          "name": "nftContract",
          "type": "address"
        },
        {
          "internalType": "uint256",
          "name": "itemId",
          "type": "uint256"
        }
      ],
      "name": "sellMarketItem",
      "outputs": [],
      "stateMutability": "payable",
      "type": "function",
      "payable": true
    },
    {
      "inputs": [],
      "name": "fetchMarketItems",
      "outputs": [
        {
          "components": [
            {
              "internalType": "uint256",
              "name": "itemId",
              "type": "uint256"
            },
            {
              "internalType": "uint256",
              "name": "nftId",
              "type": "uint256"
            },
            {
              "internalType": "address",
              "name": "nftContract",
              "type": "address"
            },
            {
              "internalType": "address payable",
              "name": "owner",
              "type": "address"
            },
            {
              "internalType": "uint256",
              "name": "price",
              "type": "uint256"
            },
            {
              "internalType": "bool",
              "name": "sold",
              "type": "bool"
            }
          ],
          "internalType": "struct MusicMarket.marketItem[]",
          "name": "",
          "type": "tuple[]"
        }
      ],
      "stateMutability": "view",
      "type": "function",
      "constant": true
    },
    {
      "inputs": [],
      "name": "fetchMyNFTs",
      "outputs": [
        {
          "components": [
            {
              "internalType": "uint256",
              "name": "itemId",
              "type": "uint256"
            },
            {
              "internalType": "uint256",
              "name": "nftId",
              "type": "uint256"
            },
            {
              "internalType": "address",
              "name": "nftContract",
              "type": "address"
            },
            {
              "internalType": "address payable",
              "name": "owner",
              "type": "address"
            },
            {
              "internalType": "uint256",
              "name": "price",
              "type": "uint256"
            },
            {
              "internalType": "bool",
              "name": "sold",
              "type": "bool"
            }
          ],
          "internalType": "struct MusicMarket.marketItem[]",
          "name": "",
          "type": "tuple[]"
        }
      ],
      "stateMutability": "view",
      "type": "function",
      "constant": true
    },
    {
      "inputs": [],
      "name": "fetchMyItemsOnSale",
      "outputs": [
        {
          "components": [
            {
              "internalType": "uint256",
              "name": "itemId",
              "type": "uint256"
            },
            {
              "internalType": "uint256",
              "name": "nftId",
              "type": "uint256"
            },
            {
              "internalType": "address",
              "name": "nftContract",
              "type": "address"
            },
            {
              "internalType": "address payable",
              "name": "owner",
              "type": "address"
            },
            {
              "internalType": "uint256",
              "name": "price",
              "type": "uint256"
            },
            {
              "internalType": "bool",
              "name": "sold",
              "type": "bool"
            }
          ],
          "internalType": "struct MusicMarket.marketItem[]",
          "name": "",
          "type": "tuple[]"
        }
      ],
      "stateMutability": "view",
      "type": "function",
      "constant": true
    }
  ],
  "bytecode": "0x6080604052652d79883d200060045534801561001a57600080fd5b50600160008190555033600360006101000a81548173ffffffffffffffffffffffffffffffffffffffff021916908373ffffffffffffffffffffffffffffffffffffffff160217905550611712806100736000396000f3fe6080604052600436106100555760003560e01c80630f08efe01461005a57806312e8558514610085578063202e3740146100b057806358eb2df5146100db578063ae9eb1ed146100f7578063b0916feb14610122575b600080fd5b34801561006657600080fd5b5061006f61013e565b60405161007c919061116e565b60405180910390f35b34801561009157600080fd5b5061009a610384565b6040516100a7919061119f565b60405180910390f35b3480156100bc57600080fd5b506100c561038e565b6040516100d2919061116e565b60405180910390f35b6100f560048036038101906100f09190611217565b61069b565b005b34801561010357600080fd5b5061010c610985565b604051610119919061116e565b60405180910390f35b61013c6004803603810190610137919061126a565b610cd2565b005b6060600061014c6001610f26565b9050600061015a6002610f26565b8261016591906112d9565b905060008167ffffffffffffffff8111156101835761018261130d565b5b6040519080825280602002602001820160405280156101bc57816020015b6101a9610f4a565b8152602001906001900390816101a15790505b5090506000805b848110156103795760001515600560006001846101e0919061133c565b815260200190815260200160002060050160009054906101000a900460ff16151514156103665760006005600060018461021a919061133c565b81526020019081526020016000206000015490506000600560008381526020019081526020016000209050806040518060c001604052908160008201548152602001600182015481526020016002820160009054906101000a900473ffffffffffffffffffffffffffffffffffffffff1673ffffffffffffffffffffffffffffffffffffffff1673ffffffffffffffffffffffffffffffffffffffff1681526020016003820160009054906101000a900473ffffffffffffffffffffffffffffffffffffffff1673ffffffffffffffffffffffffffffffffffffffff1673ffffffffffffffffffffffffffffffffffffffff168152602001600482015481526020016005820160009054906101000a900460ff16151515158152505085858151811061034957610348611392565b5b6020026020010181905250600184610361919061133c565b935050505b8080610371906113c1565b9150506101c3565b508194505050505090565b6000600454905090565b6060600061039c6001610f26565b90506000805b82811015610443573373ffffffffffffffffffffffffffffffffffffffff16600560006001846103d2919061133c565b815260200190815260200160002060030160009054906101000a900473ffffffffffffffffffffffffffffffffffffffff1673ffffffffffffffffffffffffffffffffffffffff1614156104305760018261042d919061133c565b91505b808061043b906113c1565b9150506103a2565b5060008167ffffffffffffffff8111156104605761045f61130d565b5b60405190808252806020026020018201604052801561049957816020015b610486610f4a565b81526020019060019003908161047e5790505b5090506000805b84811015610690573373ffffffffffffffffffffffffffffffffffffffff16600560006001846104d0919061133c565b815260200190815260200160002060030160009054906101000a900473ffffffffffffffffffffffffffffffffffffffff1673ffffffffffffffffffffffffffffffffffffffff16141561067d57600060056000600184610531919061133c565b81526020019081526020016000206000015490506000600560008381526020019081526020016000209050806040518060c001604052908160008201548152602001600182015481526020016002820160009054906101000a900473ffffffffffffffffffffffffffffffffffffffff1673ffffffffffffffffffffffffffffffffffffffff1673ffffffffffffffffffffffffffffffffffffffff1681526020016003820160009054906101000a900473ffffffffffffffffffffffffffffffffffffffff1673ffffffffffffffffffffffffffffffffffffffff1673ffffffffffffffffffffffffffffffffffffffff168152602001600482015481526020016005820160009054906101000a900460ff1615151515815250508585815181106106605761065f611392565b5b6020026020010181905250600184610678919061133c565b935050505b8080610688906113c1565b9150506104a0565b508194505050505090565b600260005414156106e1576040517f08c379a00000000000000000000000000000000000000000000000000000000081526004016106d890611467565b60405180910390fd5b60026000819055506000811161072c576040517f08c379a0000000000000000000000000000000000000000000000000000000008152600401610723906114d3565b60405180910390fd5b6004543414610770576040517f08c379a000000000000000000000000000000000000000000000000000000000815260040161076790611565565b60405180910390fd5b61077a6001610f34565b60006107866001610f26565b90506040518060c001604052808281526020018481526020018573ffffffffffffffffffffffffffffffffffffffff1681526020013373ffffffffffffffffffffffffffffffffffffffff1681526020018381526020016000151581525060056000838152602001908152602001600020600082015181600001556020820151816001015560408201518160020160006101000a81548173ffffffffffffffffffffffffffffffffffffffff021916908373ffffffffffffffffffffffffffffffffffffffff16021790555060608201518160030160006101000a81548173ffffffffffffffffffffffffffffffffffffffff021916908373ffffffffffffffffffffffffffffffffffffffff1602179055506080820151816004015560a08201518160050160006101000a81548160ff0219169083151502179055509050508373ffffffffffffffffffffffffffffffffffffffff166342842e0e3330866040518463ffffffff1660e01b815260040161090393929190611594565b600060405180830381600087803b15801561091d57600080fd5b505af1158015610931573d6000803e3d6000fd5b505050507f4a29ff6f650682addfdf8030b3eeb4610ec651b42d8603f2527633347f9489c98184863386600060405161096f969594939291906115e9565b60405180910390a1506001600081905550505050565b606060006109936001610f26565b905060008060005b83811015610a3c573373ffffffffffffffffffffffffffffffffffffffff16600560006001846109cb919061133c565b815260200190815260200160002060030160009054906101000a900473ffffffffffffffffffffffffffffffffffffffff1673ffffffffffffffffffffffffffffffffffffffff161415610a2957600183610a26919061133c565b92505b8080610a34906113c1565b91505061099b565b5060008267ffffffffffffffff811115610a5957610a5861130d565b5b604051908082528060200260200182016040528015610a9257816020015b610a7f610f4a565b815260200190600190039081610a775790505b50905060005b84811015610cc7573373ffffffffffffffffffffffffffffffffffffffff1660056000600184610ac8919061133c565b815260200190815260200160002060030160009054906101000a900473ffffffffffffffffffffffffffffffffffffffff1673ffffffffffffffffffffffffffffffffffffffff16148015610b5057506000151560056000600184610b2d919061133c565b815260200190815260200160002060050160009054906101000a900460ff161515145b15610cb457600060056000600184610b68919061133c565b81526020019081526020016000206000015490506000600560008381526020019081526020016000209050806040518060c001604052908160008201548152602001600182015481526020016002820160009054906101000a900473ffffffffffffffffffffffffffffffffffffffff1673ffffffffffffffffffffffffffffffffffffffff1673ffffffffffffffffffffffffffffffffffffffff1681526020016003820160009054906101000a900473ffffffffffffffffffffffffffffffffffffffff1673ffffffffffffffffffffffffffffffffffffffff1673ffffffffffffffffffffffffffffffffffffffff168152602001600482015481526020016005820160009054906101000a900460ff161515151581525050848681518110610c9757610c96611392565b5b6020026020010181905250600185610caf919061133c565b945050505b8080610cbf906113c1565b915050610a98565b508094505050505090565b60026000541415610d18576040517f08c379a0000000000000000000000000000000000000000000000000000000008152600401610d0f90611467565b60405180910390fd5b600260008190555060006005600083815260200190815260200160002060040154905060006005600084815260200190815260200160002060010154905060006005600085815260200190815260200160002060030160009054906101000a900473ffffffffffffffffffffffffffffffffffffffff169050823414610dd3576040517f08c379a0000000000000000000000000000000000000000000000000000000008152600401610dca906116bc565b60405180910390fd5b8073ffffffffffffffffffffffffffffffffffffffff166108fc349081150290604051600060405180830381858888f19350505050158015610e19573d6000803e3d6000fd5b508473ffffffffffffffffffffffffffffffffffffffff166342842e0e3033856040518463ffffffff1660e01b8152600401610e5793929190611594565b600060405180830381600087803b158015610e7157600080fd5b505af1158015610e85573d6000803e3d6000fd5b50505050336005600086815260200190815260200160002060030160006101000a81548173ffffffffffffffffffffffffffffffffffffffff021916908373ffffffffffffffffffffffffffffffffffffffff16021790555060016005600086815260200190815260200160002060050160006101000a81548160ff021916908315150217905550610f176002610f34565b50505060016000819055505050565b600081600001549050919050565b6001816000016000828254019250508190555050565b6040518060c001604052806000815260200160008152602001600073ffffffffffffffffffffffffffffffffffffffff168152602001600073ffffffffffffffffffffffffffffffffffffffff168152602001600081526020016000151581525090565b600081519050919050565b600082825260208201905092915050565b6000819050602082019050919050565b6000819050919050565b610fed81610fda565b82525050565b600073ffffffffffffffffffffffffffffffffffffffff82169050919050565b600061101e82610ff3565b9050919050565b61102e81611013565b82525050565b600061103f82610ff3565b9050919050565b61104f81611034565b82525050565b60008115159050919050565b61106a81611055565b82525050565b60c0820160008201516110866000850182610fe4565b5060208201516110996020850182610fe4565b5060408201516110ac6040850182611025565b5060608201516110bf6060850182611046565b5060808201516110d26080850182610fe4565b5060a08201516110e560a0850182611061565b50505050565b60006110f78383611070565b60c08301905092915050565b6000602082019050919050565b600061111b82610fae565b6111258185610fb9565b935061113083610fca565b8060005b8381101561116157815161114888826110eb565b975061115383611103565b925050600181019050611134565b5085935050505092915050565b600060208201905081810360008301526111888184611110565b905092915050565b61119981610fda565b82525050565b60006020820190506111b46000830184611190565b92915050565b600080fd5b6111c881611013565b81146111d357600080fd5b50565b6000813590506111e5816111bf565b92915050565b6111f481610fda565b81146111ff57600080fd5b50565b600081359050611211816111eb565b92915050565b6000806000606084860312156112305761122f6111ba565b5b600061123e868287016111d6565b935050602061124f86828701611202565b925050604061126086828701611202565b9150509250925092565b60008060408385031215611281576112806111ba565b5b600061128f858286016111d6565b92505060206112a085828601611202565b9150509250929050565b7f4e487b7100000000000000000000000000000000000000000000000000000000600052601160045260246000fd5b60006112e482610fda565b91506112ef83610fda565b925082821015611302576113016112aa565b5b828203905092915050565b7f4e487b7100000000000000000000000000000000000000000000000000000000600052604160045260246000fd5b600061134782610fda565b915061135283610fda565b9250827fffffffffffffffffffffffffffffffffffffffffffffffffffffffffffffffff03821115611387576113866112aa565b5b828201905092915050565b7f4e487b7100000000000000000000000000000000000000000000000000000000600052603260045260246000fd5b60006113cc82610fda565b91507fffffffffffffffffffffffffffffffffffffffffffffffffffffffffffffffff8214156113ff576113fe6112aa565b5b600182019050919050565b600082825260208201905092915050565b7f5265656e7472616e637947756172643a207265656e7472616e742063616c6c00600082015250565b6000611451601f8361140a565b915061145c8261141b565b602082019050919050565b6000602082019050818103600083015261148081611444565b9050919050565b7f5072696365206d7573742062652067726561746572207468616e203000000000600082015250565b60006114bd601c8361140a565b91506114c882611487565b602082019050919050565b600060208201905081810360008301526114ec816114b0565b9050919050565b7f416d6f756e74206d75736820626520657175616c20746f206c697374696e672060008201527f7072696365000000000000000000000000000000000000000000000000000000602082015250565b600061154f60258361140a565b915061155a826114f3565b604082019050919050565b6000602082019050818103600083015261157e81611542565b9050919050565b61158e81611013565b82525050565b60006060820190506115a96000830186611585565b6115b66020830185611585565b6115c36040830184611190565b949350505050565b6115d481611034565b82525050565b6115e381611055565b82525050565b600060c0820190506115fe6000830189611190565b61160b6020830188611190565b6116186040830187611585565b61162560608301866115cb565b6116326080830185611190565b61163f60a08301846115da565b979650505050505050565b7f506c656173652070617920636f7272656374207072696365206f66207468652060008201527f4e46540000000000000000000000000000000000000000000000000000000000602082015250565b60006116a660238361140a565b91506116b18261164a565b604082019050919050565b600060208201905081810360008301526116d581611699565b905091905056fea2646970667358221220aca70beeed5d50d4614876905e795135b593275940c784bcc8ca205e3bd0f01264736f6c634300080b0033",
  "immutableReferences": {},
  "source": "// SPDX-License-Identifier: SEE LICENSE IN LICENSE\npragma solidity ^0.8.4;\n\nimport \"@openzeppelin/contracts/token/ERC721/ERC721.sol\";\nimport \"@openzeppelin/contracts/utils/Counters.sol\";\nimport \"@openzeppelin/contracts/security/ReentrancyGuard.sol\";\n\ncontract MusicMarket is ReentrancyGuard {\n    using Counters for Counters.Counter;\n\n    // _marketItemId is a unique id provided to every smart contract.\n    Counters.Counter private _marketItemId;\n\n    //Track total items sold.\n    Counters.Counter private _itemSold;\n\n    address payable owner; //Admin so that he receieve commisions, for using his network\n    uint256 listingPrice = 0.00005 ether; //Listing fee or the commision for publishing NFT\n\n    constructor() {\n        //Set owner for the smart contract\n        owner = payable(msg.sender);\n    }\n\n    struct marketItem {\n        uint itemId; // Id given to a marketplace listed item\n        uint nftId; // Id of the nft as in MusicNft.sol\n        address nftContract; // Address fo the MusicNft\n        address payable owner; //Owner of the music\n        uint price;\n        bool sold;\n    }\n\n    mapping(uint256 => marketItem) marketIdToItem;\n\n    event MarketItemCreated(\n        uint itemId,\n        uint nftId,\n        address nftContract,\n        address payable owner,\n        uint price,\n        bool sold\n    );\n\n    function getListingPrice() public view returns (uint256) {\n        return listingPrice;\n    }\n\n    function createMarketItem(\n        address nftContract,\n        uint256 tokenId,\n        uint256 price\n    ) public payable nonReentrant {\n        require(price > 0, \"Price must be greater than 0\");\n        require(\n            msg.value == listingPrice,\n            \"Amount mush be equal to listing price\"\n        );\n\n        _marketItemId.increment();\n        uint256 itemId = _marketItemId.current();\n\n        marketIdToItem[itemId] = marketItem(\n            itemId,\n            tokenId,\n            nftContract,\n            payable(msg.sender), // Person listing the nft is the owner\n            price,\n            false\n        );\n\n        IERC721(nftContract).safeTransferFrom(\n            msg.sender,\n            address(this),\n            tokenId\n        );\n\n        emit MarketItemCreated(\n            itemId,\n            tokenId,\n            nftContract,\n            payable(msg.sender),\n            price,\n            false\n        );\n    }\n\n    function sellMarketItem(address nftContract, uint itemId)\n        public\n        payable\n        nonReentrant\n    {\n        uint256 price = marketIdToItem[itemId].price;\n        uint tokenId = marketIdToItem[itemId].nftId;\n        address payable nft_owner = marketIdToItem[itemId].owner;\n\n        require(msg.value == price, \"Please pay correct price of the NFT\");\n        nft_owner.transfer(msg.value); //Trsnsfer money to buyer->owner\n\n        IERC721(nftContract).safeTransferFrom(\n            address(this),\n            msg.sender,\n            tokenId\n        ); //Transfer music from owner->buyer\n\n        marketIdToItem[itemId].owner = payable(msg.sender); // Change owner\n        marketIdToItem[itemId].sold = true; //Set market item sold to true\n        _itemSold.increment();\n    }\n\n    function fetchMarketItems() public view returns (marketItem[] memory) {\n        uint itemCount = _marketItemId.current();\n        uint unsoldItemCount = itemCount - _itemSold.current();\n\n        marketItem[] memory items = new marketItem[](unsoldItemCount);\n        uint currentIndex = 0;\n\n        for (uint i = 0; i < itemCount; i++) {\n            if (marketIdToItem[i + 1].sold == false) {\n                uint currentId = marketIdToItem[i + 1].itemId;\n                marketItem storage currentItem = marketIdToItem[currentId];\n                items[currentIndex] = currentItem;\n                currentIndex += 1;\n            }\n        }\n        return items;\n    }\n\n    function fetchMyNFTs() public view returns (marketItem[] memory) {\n        //get total number of items ever created\n        uint totalItemCount = _marketItemId.current();\n\n        uint itemCount = 0;\n        for (uint i = 0; i < totalItemCount; i++) {\n            //get only the items that this user has bought/is the owner\n            if (marketIdToItem[i + 1].owner == msg.sender) {\n                itemCount += 1; //total length\n            }\n        }\n\n        marketItem[] memory items = new marketItem[](itemCount);\n        uint currentIndex = 0;\n        for (uint i = 0; i < totalItemCount; i++) {\n            if (marketIdToItem[i + 1].owner == msg.sender) {\n                uint currentId = marketIdToItem[i + 1].itemId;\n                marketItem storage currentItem = marketIdToItem[currentId];\n                items[currentIndex] = currentItem;\n                currentIndex += 1;\n            }\n        }\n        return items;\n    }\n\n    function fetchMyItemsOnSale() public view returns (marketItem[] memory) {\n        //get total number of items ever created\n        uint totalItemCount = _marketItemId.current();\n\n        uint itemCount = 0;\n        uint currentIndex = 0;\n\n        for (uint i = 0; i < totalItemCount; i++) {\n            //get only the items that this user has bought/is the owner\n            if (marketIdToItem[i + 1].owner == msg.sender) {\n                itemCount += 1; //total length\n            }\n        }\n\n        marketItem[] memory items = new marketItem[](itemCount);\n        for (uint i = 0; i < totalItemCount; i++) {\n            if (marketIdToItem[i + 1].owner == msg.sender && marketIdToItem[i + 1].sold == false) {\n                uint currentId = marketIdToItem[i + 1].itemId;\n                marketItem storage currentItem = marketIdToItem[currentId];\n                items[currentIndex] = currentItem;\n                currentIndex += 1;\n            }\n        }\n        return items;\n    }\n}\n",
  "sourcePath": "/home/rhythmshandlya/Documents/mp3/contracts/MusicMarket.sol",
  "compiler": {
    "name": "solc",
    "version": "0.8.11+commit.d7f03943.Emscripten.clang"
  },
  "schemaVersion": "3.4.6",
  "updatedAt": "2022-03-31T04:14:15.888Z",
  "networkType": "ethereum",
  "devdoc": {
    "kind": "dev",
    "methods": {},
    "version": 1
  },
  "userdoc": {
    "kind": "user",
    "methods": {},
    "version": 1
  }
}