{
  "contractName": "MusicNft",
  "abi": [
    {
      "inputs": [
        {
          "internalType": "address",
          "name": "marketPlaceAddress",
          "type": "address"
        }
      ],
      "stateMutability": "nonpayable",
      "type": "constructor"
    },
    {
      "anonymous": false,
      "inputs": [
        {
          "indexed": true,
          "internalType": "address",
          "name": "owner",
          "type": "address"
        },
        {
          "indexed": true,
          "internalType": "address",
          "name": "approved",
          "type": "address"
        },
        {
          "indexed": true,
          "internalType": "uint256",
          "name": "tokenId",
          "type": "uint256"
        }
      ],
      "name": "Approval",
      "type": "event"
    },
    {
      "anonymous": false,
      "inputs": [
        {
          "indexed": true,
          "internalType": "address",
          "name": "owner",
          "type": "address"
        },
        {
          "indexed": true,
          "internalType": "address",
          "name": "operator",
          "type": "address"
        },
        {
          "indexed": false,
          "internalType": "bool",
          "name": "approved",
          "type": "bool"
        }
      ],
      "name": "ApprovalForAll",
      "type": "event"
    },
    {
      "anonymous": false,
      "inputs": [
        {
          "indexed": true,
          "internalType": "address",
          "name": "from",
          "type": "address"
        },
        {
          "indexed": true,
          "internalType": "address",
          "name": "to",
          "type": "address"
        },
        {
          "indexed": true,
          "internalType": "uint256",
          "name": "tokenId",
          "type": "uint256"
        }
      ],
      "name": "Transfer",
      "type": "event"
    },
    {
      "anonymous": false,
      "inputs": [
        {
          "indexed": false,
          "internalType": "uint256",
          "name": "",
          "type": "uint256"
        },
        {
          "components": [
            {
              "internalType": "uint104",
              "name": "genre",
              "type": "uint104"
            },
            {
              "internalType": "uint104",
              "name": "language",
              "type": "uint104"
            },
            {
              "internalType": "string",
              "name": "title",
              "type": "string"
            },
            {
              "internalType": "string",
              "name": "description",
              "type": "string"
            }
          ],
          "indexed": false,
          "internalType": "struct MusicNft.musicMetadata",
          "name": "",
          "type": "tuple"
        }
      ],
      "name": "tokenCreated",
      "type": "event"
    },
    {
      "inputs": [
        {
          "internalType": "address",
          "name": "to",
          "type": "address"
        },
        {
          "internalType": "uint256",
          "name": "tokenId",
          "type": "uint256"
        }
      ],
      "name": "approve",
      "outputs": [],
      "stateMutability": "nonpayable",
      "type": "function"
    },
    {
      "inputs": [
        {
          "internalType": "address",
          "name": "owner",
          "type": "address"
        }
      ],
      "name": "balanceOf",
      "outputs": [
        {
          "internalType": "uint256",
          "name": "",
          "type": "uint256"
        }
      ],
      "stateMutability": "view",
      "type": "function",
      "constant": true
    },
    {
      "inputs": [
        {
          "internalType": "uint256",
          "name": "tokenId",
          "type": "uint256"
        }
      ],
      "name": "getApproved",
      "outputs": [
        {
          "internalType": "address",
          "name": "",
          "type": "address"
        }
      ],
      "stateMutability": "view",
      "type": "function",
      "constant": true
    },
    {
      "inputs": [
        {
          "internalType": "address",
          "name": "owner",
          "type": "address"
        },
        {
          "internalType": "address",
          "name": "operator",
          "type": "address"
        }
      ],
      "name": "isApprovedForAll",
      "outputs": [
        {
          "internalType": "bool",
          "name": "",
          "type": "bool"
        }
      ],
      "stateMutability": "view",
      "type": "function",
      "constant": true
    },
    {
      "inputs": [],
      "name": "name",
      "outputs": [
        {
          "internalType": "string",
          "name": "",
          "type": "string"
        }
      ],
      "stateMutability": "view",
      "type": "function",
      "constant": true
    },
    {
      "inputs": [
        {
          "internalType": "uint256",
          "name": "tokenId",
          "type": "uint256"
        }
      ],
      "name": "ownerOf",
      "outputs": [
        {
          "internalType": "address",
          "name": "",
          "type": "address"
        }
      ],
      "stateMutability": "view",
      "type": "function",
      "constant": true
    },
    {
      "inputs": [
        {
          "internalType": "address",
          "name": "from",
          "type": "address"
        },
        {
          "internalType": "address",
          "name": "to",
          "type": "address"
        },
        {
          "internalType": "uint256",
          "name": "tokenId",
          "type": "uint256"
        }
      ],
      "name": "safeTransferFrom",
      "outputs": [],
      "stateMutability": "nonpayable",
      "type": "function"
    },
    {
      "inputs": [
        {
          "internalType": "address",
          "name": "from",
          "type": "address"
        },
        {
          "internalType": "address",
          "name": "to",
          "type": "address"
        },
        {
          "internalType": "uint256",
          "name": "tokenId",
          "type": "uint256"
        },
        {
          "internalType": "bytes",
          "name": "_data",
          "type": "bytes"
        }
      ],
      "name": "safeTransferFrom",
      "outputs": [],
      "stateMutability": "nonpayable",
      "type": "function"
    },
    {
      "inputs": [
        {
          "internalType": "address",
          "name": "operator",
          "type": "address"
        },
        {
          "internalType": "bool",
          "name": "approved",
          "type": "bool"
        }
      ],
      "name": "setApprovalForAll",
      "outputs": [],
      "stateMutability": "nonpayable",
      "type": "function"
    },
    {
      "inputs": [
        {
          "internalType": "bytes4",
          "name": "interfaceId",
          "type": "bytes4"
        }
      ],
      "name": "supportsInterface",
      "outputs": [
        {
          "internalType": "bool",
          "name": "",
          "type": "bool"
        }
      ],
      "stateMutability": "view",
      "type": "function",
      "constant": true
    },
    {
      "inputs": [],
      "name": "symbol",
      "outputs": [
        {
          "internalType": "string",
          "name": "",
          "type": "string"
        }
      ],
      "stateMutability": "view",
      "type": "function",
      "constant": true
    },
    {
      "inputs": [
        {
          "internalType": "uint256",
          "name": "tokenId",
          "type": "uint256"
        }
      ],
      "name": "tokenURI",
      "outputs": [
        {
          "internalType": "string",
          "name": "",
          "type": "string"
        }
      ],
      "stateMutability": "view",
      "type": "function",
      "constant": true
    },
    {
      "inputs": [
        {
          "internalType": "address",
          "name": "from",
          "type": "address"
        },
        {
          "internalType": "address",
          "name": "to",
          "type": "address"
        },
        {
          "internalType": "uint256",
          "name": "tokenId",
          "type": "uint256"
        }
      ],
      "name": "transferFrom",
      "outputs": [],
      "stateMutability": "nonpayable",
      "type": "function"
    },
    {
      "inputs": [
        {
          "internalType": "string",
          "name": "tokenURI",
          "type": "string"
        },
        {
          "components": [
            {
              "internalType": "uint104",
              "name": "genre",
              "type": "uint104"
            },
            {
              "internalType": "uint104",
              "name": "language",
              "type": "uint104"
            },
            {
              "internalType": "string",
              "name": "title",
              "type": "string"
            },
            {
              "internalType": "string",
              "name": "description",
              "type": "string"
            }
          ],
          "internalType": "struct MusicNft.musicMetadata",
          "name": "details",
          "type": "tuple"
        }
      ],
      "name": "createToken",
      "outputs": [
        {
          "internalType": "uint256",
          "name": "",
          "type": "uint256"
        }
      ],
      "stateMutability": "nonpayable",
      "type": "function"
    }
  ],
  "bytecode": "0x60806040523480156200001157600080fd5b50604051620031d9380380620031d9833981810160405281019062000037919062000239565b6040518060400160405280600b81526020017f4d7573696320546f6b656e0000000000000000000000000000000000000000008152506040518060400160405280600381526020017f4d535400000000000000000000000000000000000000000000000000000000008152508160009080519060200190620000bb9291906200011f565b508060019080519060200190620000d49291906200011f565b50505080600860006101000a81548173ffffffffffffffffffffffffffffffffffffffff021916908373ffffffffffffffffffffffffffffffffffffffff16021790555050620002d0565b8280546200012d906200029a565b90600052602060002090601f0160209004810192826200015157600085556200019d565b82601f106200016c57805160ff19168380011785556200019d565b828001600101855582156200019d579182015b828111156200019c5782518255916020019190600101906200017f565b5b509050620001ac9190620001b0565b5090565b5b80821115620001cb576000816000905550600101620001b1565b5090565b600080fd5b600073ffffffffffffffffffffffffffffffffffffffff82169050919050565b60006200020182620001d4565b9050919050565b6200021381620001f4565b81146200021f57600080fd5b50565b600081519050620002338162000208565b92915050565b600060208284031215620002525762000251620001cf565b5b6000620002628482850162000222565b91505092915050565b7f4e487b7100000000000000000000000000000000000000000000000000000000600052602260045260246000fd5b60006002820490506001821680620002b357607f821691505b60208210811415620002ca57620002c96200026b565b5b50919050565b612ef980620002e06000396000f3fe608060405234801561001057600080fd5b50600436106100ea5760003560e01c80636352211e1161008c578063a22cb46511610066578063a22cb4651461026f578063b88d4fde1461028b578063c87b56dd146102a7578063e985e9c5146102d7576100ea565b80636352211e146101f157806370a082311461022157806395d89b4114610251576100ea565b8063095ea7b3116100c8578063095ea7b31461016d5780631246c4cc1461018957806323b872dd146101b957806342842e0e146101d5576100ea565b806301ffc9a7146100ef57806306fdde031461011f578063081812fc1461013d575b600080fd5b61010960048036038101906101049190611a4d565b610307565b6040516101169190611a95565b60405180910390f35b6101276103e9565b6040516101349190611b49565b60405180910390f35b61015760048036038101906101529190611ba1565b61047b565b6040516101649190611c0f565b60405180910390f35b61018760048036038101906101829190611c56565b610500565b005b6101a3600480360381019061019e9190611eca565b610618565b6040516101b09190611f51565b60405180910390f35b6101d360048036038101906101ce9190611f6c565b610779565b005b6101ef60048036038101906101ea9190611f6c565b6107d9565b005b61020b60048036038101906102069190611ba1565b6107f9565b6040516102189190611c0f565b60405180910390f35b61023b60048036038101906102369190611fbf565b6108ab565b6040516102489190611f51565b60405180910390f35b610259610963565b6040516102669190611b49565b60405180910390f35b61028960048036038101906102849190612018565b6109f5565b005b6102a560048036038101906102a091906120f9565b610a0b565b005b6102c160048036038101906102bc9190611ba1565b610a6d565b6040516102ce9190611b49565b60405180910390f35b6102f160048036038101906102ec919061217c565b610bbf565b6040516102fe9190611a95565b60405180910390f35b60007f80ac58cd000000000000000000000000000000000000000000000000000000007bffffffffffffffffffffffffffffffffffffffffffffffffffffffff1916827bffffffffffffffffffffffffffffffffffffffffffffffffffffffff191614806103d257507f5b5e139f000000000000000000000000000000000000000000000000000000007bffffffffffffffffffffffffffffffffffffffffffffffffffffffff1916827bffffffffffffffffffffffffffffffffffffffffffffffffffffffff1916145b806103e257506103e182610c53565b5b9050919050565b6060600080546103f8906121eb565b80601f0160208091040260200160405190810160405280929190818152602001828054610424906121eb565b80156104715780601f1061044657610100808354040283529160200191610471565b820191906000526020600020905b81548152906001019060200180831161045457829003601f168201915b5050505050905090565b600061048682610cbd565b6104c5576040517f08c379a00000000000000000000000000000000000000000000000000000000081526004016104bc9061228f565b60405180910390fd5b6004600083815260200190815260200160002060009054906101000a900473ffffffffffffffffffffffffffffffffffffffff169050919050565b600061050b826107f9565b90508073ffffffffffffffffffffffffffffffffffffffff168373ffffffffffffffffffffffffffffffffffffffff16141561057c576040517f08c379a000000000000000000000000000000000000000000000000000000000815260040161057390612321565b60405180910390fd5b8073ffffffffffffffffffffffffffffffffffffffff1661059b610d29565b73ffffffffffffffffffffffffffffffffffffffff1614806105ca57506105c9816105c4610d29565b610bbf565b5b610609576040517f08c379a0000000000000000000000000000000000000000000000000000000008152600401610600906123b3565b60405180910390fd5b6106138383610d31565b505050565b60006106246007610dea565b60006106306007610e00565b90507fbd0724f1caa42056bdc8ff951120fcdce474320406980437308d6b9e71ce33f48184604051610663929190612496565b60405180910390a16106753382610e0e565b61067f8185610fe8565b6106ac600860009054906101000a900473ffffffffffffffffffffffffffffffffffffffff1660016109f5565b826009600083815260200190815260200160002060008201518160000160006101000a8154816cffffffffffffffffffffffffff02191690836cffffffffffffffffffffffffff160217905550602082015181600001600d6101000a8154816cffffffffffffffffffffffffff02191690836cffffffffffffffffffffffffff160217905550604082015181600101908051906020019061074e92919061193e565b50606082015181600201908051906020019061076b92919061193e565b509050508091505092915050565b61078a610784610d29565b8261105c565b6107c9576040517f08c379a00000000000000000000000000000000000000000000000000000000081526004016107c090612538565b60405180910390fd5b6107d483838361113a565b505050565b6107f483838360405180602001604052806000815250610a0b565b505050565b6000806002600084815260200190815260200160002060009054906101000a900473ffffffffffffffffffffffffffffffffffffffff169050600073ffffffffffffffffffffffffffffffffffffffff168173ffffffffffffffffffffffffffffffffffffffff1614156108a2576040517f08c379a0000000000000000000000000000000000000000000000000000000008152600401610899906125ca565b60405180910390fd5b80915050919050565b60008073ffffffffffffffffffffffffffffffffffffffff168273ffffffffffffffffffffffffffffffffffffffff16141561091c576040517f08c379a00000000000000000000000000000000000000000000000000000000081526004016109139061265c565b60405180910390fd5b600360008373ffffffffffffffffffffffffffffffffffffffff1673ffffffffffffffffffffffffffffffffffffffff168152602001908152602001600020549050919050565b606060018054610972906121eb565b80601f016020809104026020016040519081016040528092919081815260200182805461099e906121eb565b80156109eb5780601f106109c0576101008083540402835291602001916109eb565b820191906000526020600020905b8154815290600101906020018083116109ce57829003601f168201915b5050505050905090565b610a07610a00610d29565b83836113a1565b5050565b610a1c610a16610d29565b8361105c565b610a5b576040517f08c379a0000000000000000000000000000000000000000000000000000000008152600401610a5290612538565b60405180910390fd5b610a678484848461150e565b50505050565b6060610a7882610cbd565b610ab7576040517f08c379a0000000000000000000000000000000000000000000000000000000008152600401610aae906126ee565b60405180910390fd5b6000600660008481526020019081526020016000208054610ad7906121eb565b80601f0160208091040260200160405190810160405280929190818152602001828054610b03906121eb565b8015610b505780601f10610b2557610100808354040283529160200191610b50565b820191906000526020600020905b815481529060010190602001808311610b3357829003601f168201915b505050505090506000610b6161156a565b9050600081511415610b77578192505050610bba565b600082511115610bac578082604051602001610b9492919061274a565b60405160208183030381529060405292505050610bba565b610bb584611581565b925050505b919050565b6000600560008473ffffffffffffffffffffffffffffffffffffffff1673ffffffffffffffffffffffffffffffffffffffff16815260200190815260200160002060008373ffffffffffffffffffffffffffffffffffffffff1673ffffffffffffffffffffffffffffffffffffffff16815260200190815260200160002060009054906101000a900460ff16905092915050565b60007f01ffc9a7000000000000000000000000000000000000000000000000000000007bffffffffffffffffffffffffffffffffffffffffffffffffffffffff1916827bffffffffffffffffffffffffffffffffffffffffffffffffffffffff1916149050919050565b60008073ffffffffffffffffffffffffffffffffffffffff166002600084815260200190815260200160002060009054906101000a900473ffffffffffffffffffffffffffffffffffffffff1673ffffffffffffffffffffffffffffffffffffffff1614159050919050565b600033905090565b816004600083815260200190815260200160002060006101000a81548173ffffffffffffffffffffffffffffffffffffffff021916908373ffffffffffffffffffffffffffffffffffffffff160217905550808273ffffffffffffffffffffffffffffffffffffffff16610da4836107f9565b73ffffffffffffffffffffffffffffffffffffffff167f8c5be1e5ebec7d5bd14f71427d1e84f3dd0314c0f7b2291e5b200ac8c7c3b92560405160405180910390a45050565b6001816000016000828254019250508190555050565b600081600001549050919050565b600073ffffffffffffffffffffffffffffffffffffffff168273ffffffffffffffffffffffffffffffffffffffff161415610e7e576040517f08c379a0000000000000000000000000000000000000000000000000000000008152600401610e75906127ba565b60405180910390fd5b610e8781610cbd565b15610ec7576040517f08c379a0000000000000000000000000000000000000000000000000000000008152600401610ebe90612826565b60405180910390fd5b610ed360008383611628565b6001600360008473ffffffffffffffffffffffffffffffffffffffff1673ffffffffffffffffffffffffffffffffffffffff1681526020019081526020016000206000828254610f239190612875565b92505081905550816002600083815260200190815260200160002060006101000a81548173ffffffffffffffffffffffffffffffffffffffff021916908373ffffffffffffffffffffffffffffffffffffffff160217905550808273ffffffffffffffffffffffffffffffffffffffff16600073ffffffffffffffffffffffffffffffffffffffff167fddf252ad1be2c89b69c2b068fc378daa952ba7f163c4a11628f55a4df523b3ef60405160405180910390a4610fe46000838361162d565b5050565b610ff182610cbd565b611030576040517f08c379a00000000000000000000000000000000000000000000000000000000081526004016110279061293d565b60405180910390fd5b8060066000848152602001908152602001600020908051906020019061105792919061193e565b505050565b600061106782610cbd565b6110a6576040517f08c379a000000000000000000000000000000000000000000000000000000000815260040161109d906129cf565b60405180910390fd5b60006110b1836107f9565b90508073ffffffffffffffffffffffffffffffffffffffff168473ffffffffffffffffffffffffffffffffffffffff16148061112057508373ffffffffffffffffffffffffffffffffffffffff166111088461047b565b73ffffffffffffffffffffffffffffffffffffffff16145b8061113157506111308185610bbf565b5b91505092915050565b8273ffffffffffffffffffffffffffffffffffffffff1661115a826107f9565b73ffffffffffffffffffffffffffffffffffffffff16146111b0576040517f08c379a00000000000000000000000000000000000000000000000000000000081526004016111a790612a61565b60405180910390fd5b600073ffffffffffffffffffffffffffffffffffffffff168273ffffffffffffffffffffffffffffffffffffffff161415611220576040517f08c379a000000000000000000000000000000000000000000000000000000000815260040161121790612af3565b60405180910390fd5b61122b838383611628565b611236600082610d31565b6001600360008573ffffffffffffffffffffffffffffffffffffffff1673ffffffffffffffffffffffffffffffffffffffff16815260200190815260200160002060008282546112869190612b13565b925050819055506001600360008473ffffffffffffffffffffffffffffffffffffffff1673ffffffffffffffffffffffffffffffffffffffff16815260200190815260200160002060008282546112dd9190612875565b92505081905550816002600083815260200190815260200160002060006101000a81548173ffffffffffffffffffffffffffffffffffffffff021916908373ffffffffffffffffffffffffffffffffffffffff160217905550808273ffffffffffffffffffffffffffffffffffffffff168473ffffffffffffffffffffffffffffffffffffffff167fddf252ad1be2c89b69c2b068fc378daa952ba7f163c4a11628f55a4df523b3ef60405160405180910390a461139c83838361162d565b505050565b8173ffffffffffffffffffffffffffffffffffffffff168373ffffffffffffffffffffffffffffffffffffffff161415611410576040517f08c379a000000000000000000000000000000000000000000000000000000000815260040161140790612b93565b60405180910390fd5b80600560008573ffffffffffffffffffffffffffffffffffffffff1673ffffffffffffffffffffffffffffffffffffffff16815260200190815260200160002060008473ffffffffffffffffffffffffffffffffffffffff1673ffffffffffffffffffffffffffffffffffffffff16815260200190815260200160002060006101000a81548160ff0219169083151502179055508173ffffffffffffffffffffffffffffffffffffffff168373ffffffffffffffffffffffffffffffffffffffff167f17307eab39ab6107e8899845ad3d59bd9653f200f220920489ca2b5937696c31836040516115019190611a95565b60405180910390a3505050565b61151984848461113a565b61152584848484611632565b611564576040517f08c379a000000000000000000000000000000000000000000000000000000000815260040161155b90612c25565b60405180910390fd5b50505050565b606060405180602001604052806000815250905090565b606061158c82610cbd565b6115cb576040517f08c379a00000000000000000000000000000000000000000000000000000000081526004016115c290612cb7565b60405180910390fd5b60006115d561156a565b905060008151116115f55760405180602001604052806000815250611620565b806115ff846117ba565b60405160200161161092919061274a565b6040516020818303038152906040525b915050919050565b505050565b505050565b60006116538473ffffffffffffffffffffffffffffffffffffffff1661191b565b156117ad578373ffffffffffffffffffffffffffffffffffffffff1663150b7a0261167c610d29565b8786866040518563ffffffff1660e01b815260040161169e9493929190612d2c565b6020604051808303816000875af19250505080156116da57506040513d601f19601f820116820180604052508101906116d79190612d8d565b60015b61175d573d806000811461170a576040519150601f19603f3d011682016040523d82523d6000602084013e61170f565b606091505b50600081511415611755576040517f08c379a000000000000000000000000000000000000000000000000000000000815260040161174c90612c25565b60405180910390fd5b805181602001fd5b63150b7a0260e01b7bffffffffffffffffffffffffffffffffffffffffffffffffffffffff1916817bffffffffffffffffffffffffffffffffffffffffffffffffffffffff1916149150506117b2565b600190505b949350505050565b60606000821415611802576040518060400160405280600181526020017f30000000000000000000000000000000000000000000000000000000000000008152509050611916565b600082905060005b6000821461183457808061181d90612dba565b915050600a8261182d9190612e32565b915061180a565b60008167ffffffffffffffff8111156118505761184f611ca0565b5b6040519080825280601f01601f1916602001820160405280156118825781602001600182028036833780820191505090505b5090505b6000851461190f5760018261189b9190612b13565b9150600a856118aa9190612e63565b60306118b69190612875565b60f81b8183815181106118cc576118cb612e94565b5b60200101907effffffffffffffffffffffffffffffffffffffffffffffffffffffffffffff1916908160001a905350600a856119089190612e32565b9450611886565b8093505050505b919050565b6000808273ffffffffffffffffffffffffffffffffffffffff163b119050919050565b82805461194a906121eb565b90600052602060002090601f01602090048101928261196c57600085556119b3565b82601f1061198557805160ff19168380011785556119b3565b828001600101855582156119b3579182015b828111156119b2578251825591602001919060010190611997565b5b5090506119c091906119c4565b5090565b5b808211156119dd5760008160009055506001016119c5565b5090565b6000604051905090565b600080fd5b600080fd5b60007fffffffff0000000000000000000000000000000000000000000000000000000082169050919050565b611a2a816119f5565b8114611a3557600080fd5b50565b600081359050611a4781611a21565b92915050565b600060208284031215611a6357611a626119eb565b5b6000611a7184828501611a38565b91505092915050565b60008115159050919050565b611a8f81611a7a565b82525050565b6000602082019050611aaa6000830184611a86565b92915050565b600081519050919050565b600082825260208201905092915050565b60005b83811015611aea578082015181840152602081019050611acf565b83811115611af9576000848401525b50505050565b6000601f19601f8301169050919050565b6000611b1b82611ab0565b611b258185611abb565b9350611b35818560208601611acc565b611b3e81611aff565b840191505092915050565b60006020820190508181036000830152611b638184611b10565b905092915050565b6000819050919050565b611b7e81611b6b565b8114611b8957600080fd5b50565b600081359050611b9b81611b75565b92915050565b600060208284031215611bb757611bb66119eb565b5b6000611bc584828501611b8c565b91505092915050565b600073ffffffffffffffffffffffffffffffffffffffff82169050919050565b6000611bf982611bce565b9050919050565b611c0981611bee565b82525050565b6000602082019050611c246000830184611c00565b92915050565b611c3381611bee565b8114611c3e57600080fd5b50565b600081359050611c5081611c2a565b92915050565b60008060408385031215611c6d57611c6c6119eb565b5b6000611c7b85828601611c41565b9250506020611c8c85828601611b8c565b9150509250929050565b600080fd5b600080fd5b7f4e487b7100000000000000000000000000000000000000000000000000000000600052604160045260246000fd5b611cd882611aff565b810181811067ffffffffffffffff82111715611cf757611cf6611ca0565b5b80604052505050565b6000611d0a6119e1565b9050611d168282611ccf565b919050565b600067ffffffffffffffff821115611d3657611d35611ca0565b5b611d3f82611aff565b9050602081019050919050565b82818337600083830152505050565b6000611d6e611d6984611d1b565b611d00565b905082815260208101848484011115611d8a57611d89611c9b565b5b611d95848285611d4c565b509392505050565b600082601f830112611db257611db1611c96565b5b8135611dc2848260208601611d5b565b91505092915050565b600080fd5b600080fd5b60006cffffffffffffffffffffffffff82169050919050565b611df781611dd5565b8114611e0257600080fd5b50565b600081359050611e1481611dee565b92915050565b600060808284031215611e3057611e2f611dcb565b5b611e3a6080611d00565b90506000611e4a84828501611e05565b6000830152506020611e5e84828501611e05565b602083015250604082013567ffffffffffffffff811115611e8257611e81611dd0565b5b611e8e84828501611d9d565b604083015250606082013567ffffffffffffffff811115611eb257611eb1611dd0565b5b611ebe84828501611d9d565b60608301525092915050565b60008060408385031215611ee157611ee06119eb565b5b600083013567ffffffffffffffff811115611eff57611efe6119f0565b5b611f0b85828601611d9d565b925050602083013567ffffffffffffffff811115611f2c57611f2b6119f0565b5b611f3885828601611e1a565b9150509250929050565b611f4b81611b6b565b82525050565b6000602082019050611f666000830184611f42565b92915050565b600080600060608486031215611f8557611f846119eb565b5b6000611f9386828701611c41565b9350506020611fa486828701611c41565b9250506040611fb586828701611b8c565b9150509250925092565b600060208284031215611fd557611fd46119eb565b5b6000611fe384828501611c41565b91505092915050565b611ff581611a7a565b811461200057600080fd5b50565b60008135905061201281611fec565b92915050565b6000806040838503121561202f5761202e6119eb565b5b600061203d85828601611c41565b925050602061204e85828601612003565b9150509250929050565b600067ffffffffffffffff82111561207357612072611ca0565b5b61207c82611aff565b9050602081019050919050565b600061209c61209784612058565b611d00565b9050828152602081018484840111156120b8576120b7611c9b565b5b6120c3848285611d4c565b509392505050565b600082601f8301126120e0576120df611c96565b5b81356120f0848260208601612089565b91505092915050565b60008060008060808587031215612113576121126119eb565b5b600061212187828801611c41565b945050602061213287828801611c41565b935050604061214387828801611b8c565b925050606085013567ffffffffffffffff811115612164576121636119f0565b5b612170878288016120cb565b91505092959194509250565b60008060408385031215612193576121926119eb565b5b60006121a185828601611c41565b92505060206121b285828601611c41565b9150509250929050565b7f4e487b7100000000000000000000000000000000000000000000000000000000600052602260045260246000fd5b6000600282049050600182168061220357607f821691505b60208210811415612217576122166121bc565b5b50919050565b7f4552433732313a20617070726f76656420717565727920666f72206e6f6e657860008201527f697374656e7420746f6b656e0000000000000000000000000000000000000000602082015250565b6000612279602c83611abb565b91506122848261221d565b604082019050919050565b600060208201905081810360008301526122a88161226c565b9050919050565b7f4552433732313a20617070726f76616c20746f2063757272656e74206f776e6560008201527f7200000000000000000000000000000000000000000000000000000000000000602082015250565b600061230b602183611abb565b9150612316826122af565b604082019050919050565b6000602082019050818103600083015261233a816122fe565b9050919050565b7f4552433732313a20617070726f76652063616c6c6572206973206e6f74206f7760008201527f6e6572206e6f7220617070726f76656420666f7220616c6c0000000000000000602082015250565b600061239d603883611abb565b91506123a882612341565b604082019050919050565b600060208201905081810360008301526123cc81612390565b9050919050565b6123dc81611dd5565b82525050565b600082825260208201905092915050565b60006123fe82611ab0565b61240881856123e2565b9350612418818560208601611acc565b61242181611aff565b840191505092915050565b600060808301600083015161244460008601826123d3565b50602083015161245760208601826123d3565b506040830151848203604086015261246f82826123f3565b9150506060830151848203606086015261248982826123f3565b9150508091505092915050565b60006040820190506124ab6000830185611f42565b81810360208301526124bd818461242c565b90509392505050565b7f4552433732313a207472616e736665722063616c6c6572206973206e6f74206f60008201527f776e6572206e6f7220617070726f766564000000000000000000000000000000602082015250565b6000612522603183611abb565b915061252d826124c6565b604082019050919050565b6000602082019050818103600083015261255181612515565b9050919050565b7f4552433732313a206f776e657220717565727920666f72206e6f6e657869737460008201527f656e7420746f6b656e0000000000000000000000000000000000000000000000602082015250565b60006125b4602983611abb565b91506125bf82612558565b604082019050919050565b600060208201905081810360008301526125e3816125a7565b9050919050565b7f4552433732313a2062616c616e636520717565727920666f7220746865207a6560008201527f726f206164647265737300000000000000000000000000000000000000000000602082015250565b6000612646602a83611abb565b9150612651826125ea565b604082019050919050565b6000602082019050818103600083015261267581612639565b9050919050565b7f45524337323155524953746f726167653a2055524920717565727920666f722060008201527f6e6f6e6578697374656e7420746f6b656e000000000000000000000000000000602082015250565b60006126d8603183611abb565b91506126e38261267c565b604082019050919050565b60006020820190508181036000830152612707816126cb565b9050919050565b600081905092915050565b600061272482611ab0565b61272e818561270e565b935061273e818560208601611acc565b80840191505092915050565b60006127568285612719565b91506127628284612719565b91508190509392505050565b7f4552433732313a206d696e7420746f20746865207a65726f2061646472657373600082015250565b60006127a4602083611abb565b91506127af8261276e565b602082019050919050565b600060208201905081810360008301526127d381612797565b9050919050565b7f4552433732313a20746f6b656e20616c7265616479206d696e74656400000000600082015250565b6000612810601c83611abb565b915061281b826127da565b602082019050919050565b6000602082019050818103600083015261283f81612803565b9050919050565b7f4e487b7100000000000000000000000000000000000000000000000000000000600052601160045260246000fd5b600061288082611b6b565b915061288b83611b6b565b9250827fffffffffffffffffffffffffffffffffffffffffffffffffffffffffffffffff038211156128c0576128bf612846565b5b828201905092915050565b7f45524337323155524953746f726167653a2055524920736574206f66206e6f6e60008201527f6578697374656e7420746f6b656e000000000000000000000000000000000000602082015250565b6000612927602e83611abb565b9150612932826128cb565b604082019050919050565b600060208201905081810360008301526129568161291a565b9050919050565b7f4552433732313a206f70657261746f7220717565727920666f72206e6f6e657860008201527f697374656e7420746f6b656e0000000000000000000000000000000000000000602082015250565b60006129b9602c83611abb565b91506129c48261295d565b604082019050919050565b600060208201905081810360008301526129e8816129ac565b9050919050565b7f4552433732313a207472616e736665722066726f6d20696e636f72726563742060008201527f6f776e6572000000000000000000000000000000000000000000000000000000602082015250565b6000612a4b602583611abb565b9150612a56826129ef565b604082019050919050565b60006020820190508181036000830152612a7a81612a3e565b9050919050565b7f4552433732313a207472616e7366657220746f20746865207a65726f2061646460008201527f7265737300000000000000000000000000000000000000000000000000000000602082015250565b6000612add602483611abb565b9150612ae882612a81565b604082019050919050565b60006020820190508181036000830152612b0c81612ad0565b9050919050565b6000612b1e82611b6b565b9150612b2983611b6b565b925082821015612b3c57612b3b612846565b5b828203905092915050565b7f4552433732313a20617070726f766520746f2063616c6c657200000000000000600082015250565b6000612b7d601983611abb565b9150612b8882612b47565b602082019050919050565b60006020820190508181036000830152612bac81612b70565b9050919050565b7f4552433732313a207472616e7366657220746f206e6f6e20455243373231526560008201527f63656976657220696d706c656d656e7465720000000000000000000000000000602082015250565b6000612c0f603283611abb565b9150612c1a82612bb3565b604082019050919050565b60006020820190508181036000830152612c3e81612c02565b9050919050565b7f4552433732314d657461646174613a2055524920717565727920666f72206e6f60008201527f6e6578697374656e7420746f6b656e0000000000000000000000000000000000602082015250565b6000612ca1602f83611abb565b9150612cac82612c45565b604082019050919050565b60006020820190508181036000830152612cd081612c94565b9050919050565b600081519050919050565b600082825260208201905092915050565b6000612cfe82612cd7565b612d088185612ce2565b9350612d18818560208601611acc565b612d2181611aff565b840191505092915050565b6000608082019050612d416000830187611c00565b612d4e6020830186611c00565b612d5b6040830185611f42565b8181036060830152612d6d8184612cf3565b905095945050505050565b600081519050612d8781611a21565b92915050565b600060208284031215612da357612da26119eb565b5b6000612db184828501612d78565b91505092915050565b6000612dc582611b6b565b91507fffffffffffffffffffffffffffffffffffffffffffffffffffffffffffffffff821415612df857612df7612846565b5b600182019050919050565b7f4e487b7100000000000000000000000000000000000000000000000000000000600052601260045260246000fd5b6000612e3d82611b6b565b9150612e4883611b6b565b925082612e5857612e57612e03565b5b828204905092915050565b6000612e6e82611b6b565b9150612e7983611b6b565b925082612e8957612e88612e03565b5b828206905092915050565b7f4e487b7100000000000000000000000000000000000000000000000000000000600052603260045260246000fdfea26469706673582212209a57088fe96f08bcc1b313a7d85d7f0933f86231c2e57bb86f00933048adc3ad64736f6c634300080b0033",
  "immutableReferences": {},
  "source": "// contracts/GIF.sol\n// SPDX-License-Identifier: MIT\npragma solidity ^0.8.0;\n\nimport \"@openzeppelin/contracts/token/ERC721/ERC721.sol\";\nimport \"@openzeppelin/contracts/token/ERC721/extensions/ERC721URIStorage.sol\";\nimport \"@openzeppelin/contracts/utils/Counters.sol\";\n\ncontract MusicNft is ERC721URIStorage {\n    using Counters for Counters.Counter;\n    // _tokenId is a unique id provided to every smart contract.\n    Counters.Counter private _tokenId;\n\n    // Address of market place, where we will sell the NFT\n    address contractAddress;\n\n    //Music metadata\n    struct musicMetadata {\n        uint104 genre;\n        uint104 language;\n        string title;\n        string description;\n    }\n\n    mapping(uint256 => musicMetadata) metadataToId;\n\n    constructor(address marketPlaceAddress) ERC721(\"Music Token\", \"MST\") {\n        contractAddress = marketPlaceAddress;\n    }\n\n    event tokenCreated(\n        uint,\n        musicMetadata\n    );\n\n    function createToken(string memory tokenURI, musicMetadata memory details) public returns (uint256) {\n        //Set new tokenID for the token by incrementing it by 1\n        _tokenId.increment();\n        uint256 newTokenId = _tokenId.current();\n\n        //Not emmited\n        emit tokenCreated(newTokenId, details);\n\n        _mint(msg.sender, newTokenId); //Mint token\n\n        _setTokenURI(newTokenId, tokenURI); //Generate URI\n\n        setApprovalForAll(contractAddress, true); //Approve marketplace to sell the NFT\n\n        metadataToId[newTokenId] = details; //Set detils\n        \n        return newTokenId;\n    }\n}\n",
  "sourcePath": "/home/rhythmshandlya/Documents/mp3/contracts/MusicNft.sol",
  "compiler": {
    "name": "solc",
    "version": "0.8.11+commit.d7f03943.Emscripten.clang"
  },
  "schemaVersion": "3.4.6",
  "updatedAt": "2022-04-03T05:06:54.836Z",
  "networkType": "ethereum",
  "devdoc": {
    "kind": "dev",
    "methods": {
      "approve(address,uint256)": {
        "details": "See {IERC721-approve}."
      },
      "balanceOf(address)": {
        "details": "See {IERC721-balanceOf}."
      },
      "getApproved(uint256)": {
        "details": "See {IERC721-getApproved}."
      },
      "isApprovedForAll(address,address)": {
        "details": "See {IERC721-isApprovedForAll}."
      },
      "name()": {
        "details": "See {IERC721Metadata-name}."
      },
      "ownerOf(uint256)": {
        "details": "See {IERC721-ownerOf}."
      },
      "safeTransferFrom(address,address,uint256)": {
        "details": "See {IERC721-safeTransferFrom}."
      },
      "safeTransferFrom(address,address,uint256,bytes)": {
        "details": "See {IERC721-safeTransferFrom}."
      },
      "setApprovalForAll(address,bool)": {
        "details": "See {IERC721-setApprovalForAll}."
      },
      "supportsInterface(bytes4)": {
        "details": "See {IERC165-supportsInterface}."
      },
      "symbol()": {
        "details": "See {IERC721Metadata-symbol}."
      },
      "tokenURI(uint256)": {
        "details": "See {IERC721Metadata-tokenURI}."
      },
      "transferFrom(address,address,uint256)": {
        "details": "See {IERC721-transferFrom}."
      }
    },
    "version": 1
  },
  "userdoc": {
    "kind": "user",
    "methods": {},
    "version": 1
  }
}