{
  "contractName": "MusicNft",
  "abi": [
    {
      "inputs": [
        {
          "internalType": "address",
          "name": "marketPlaceAddress",
          "type": "address"
        }
      ],
      "stateMutability": "nonpayable",
      "type": "constructor"
    },
    {
      "anonymous": false,
      "inputs": [
        {
          "indexed": true,
          "internalType": "address",
          "name": "owner",
          "type": "address"
        },
        {
          "indexed": true,
          "internalType": "address",
          "name": "approved",
          "type": "address"
        },
        {
          "indexed": true,
          "internalType": "uint256",
          "name": "tokenId",
          "type": "uint256"
        }
      ],
      "name": "Approval",
      "type": "event"
    },
    {
      "anonymous": false,
      "inputs": [
        {
          "indexed": true,
          "internalType": "address",
          "name": "owner",
          "type": "address"
        },
        {
          "indexed": true,
          "internalType": "address",
          "name": "operator",
          "type": "address"
        },
        {
          "indexed": false,
          "internalType": "bool",
          "name": "approved",
          "type": "bool"
        }
      ],
      "name": "ApprovalForAll",
      "type": "event"
    },
    {
      "anonymous": false,
      "inputs": [
        {
          "indexed": true,
          "internalType": "address",
          "name": "from",
          "type": "address"
        },
        {
          "indexed": true,
          "internalType": "address",
          "name": "to",
          "type": "address"
        },
        {
          "indexed": true,
          "internalType": "uint256",
          "name": "tokenId",
          "type": "uint256"
        }
      ],
      "name": "Transfer",
      "type": "event"
    },
    {
      "anonymous": false,
      "inputs": [
        {
          "indexed": false,
          "internalType": "bool",
          "name": "",
          "type": "bool"
        }
      ],
      "name": "approvedd",
      "type": "event"
    },
    {
      "anonymous": false,
      "inputs": [
        {
          "indexed": false,
          "internalType": "uint256",
          "name": "",
          "type": "uint256"
        },
        {
          "components": [
            {
              "internalType": "uint104",
              "name": "genre",
              "type": "uint104"
            },
            {
              "internalType": "uint104",
              "name": "language",
              "type": "uint104"
            },
            {
              "internalType": "string",
              "name": "title",
              "type": "string"
            },
            {
              "internalType": "string",
              "name": "description",
              "type": "string"
            }
          ],
          "indexed": false,
          "internalType": "struct MusicNft.musicMetadata",
          "name": "",
          "type": "tuple"
        }
      ],
      "name": "tokenCreated",
      "type": "event"
    },
    {
      "inputs": [
        {
          "internalType": "address",
          "name": "to",
          "type": "address"
        },
        {
          "internalType": "uint256",
          "name": "tokenId",
          "type": "uint256"
        }
      ],
      "name": "approve",
      "outputs": [],
      "stateMutability": "nonpayable",
      "type": "function"
    },
    {
      "inputs": [
        {
          "internalType": "address",
          "name": "owner",
          "type": "address"
        }
      ],
      "name": "balanceOf",
      "outputs": [
        {
          "internalType": "uint256",
          "name": "",
          "type": "uint256"
        }
      ],
      "stateMutability": "view",
      "type": "function"
    },
    {
      "inputs": [
        {
          "internalType": "uint256",
          "name": "tokenId",
          "type": "uint256"
        }
      ],
      "name": "getApproved",
      "outputs": [
        {
          "internalType": "address",
          "name": "",
          "type": "address"
        }
      ],
      "stateMutability": "view",
      "type": "function"
    },
    {
      "inputs": [
        {
          "internalType": "address",
          "name": "owner",
          "type": "address"
        },
        {
          "internalType": "address",
          "name": "operator",
          "type": "address"
        }
      ],
      "name": "isApprovedForAll",
      "outputs": [
        {
          "internalType": "bool",
          "name": "",
          "type": "bool"
        }
      ],
      "stateMutability": "view",
      "type": "function"
    },
    {
      "inputs": [],
      "name": "name",
      "outputs": [
        {
          "internalType": "string",
          "name": "",
          "type": "string"
        }
      ],
      "stateMutability": "view",
      "type": "function"
    },
    {
      "inputs": [
        {
          "internalType": "uint256",
          "name": "tokenId",
          "type": "uint256"
        }
      ],
      "name": "ownerOf",
      "outputs": [
        {
          "internalType": "address",
          "name": "",
          "type": "address"
        }
      ],
      "stateMutability": "view",
      "type": "function"
    },
    {
      "inputs": [
        {
          "internalType": "address",
          "name": "from",
          "type": "address"
        },
        {
          "internalType": "address",
          "name": "to",
          "type": "address"
        },
        {
          "internalType": "uint256",
          "name": "tokenId",
          "type": "uint256"
        }
      ],
      "name": "safeTransferFrom",
      "outputs": [],
      "stateMutability": "nonpayable",
      "type": "function"
    },
    {
      "inputs": [
        {
          "internalType": "address",
          "name": "from",
          "type": "address"
        },
        {
          "internalType": "address",
          "name": "to",
          "type": "address"
        },
        {
          "internalType": "uint256",
          "name": "tokenId",
          "type": "uint256"
        },
        {
          "internalType": "bytes",
          "name": "_data",
          "type": "bytes"
        }
      ],
      "name": "safeTransferFrom",
      "outputs": [],
      "stateMutability": "nonpayable",
      "type": "function"
    },
    {
      "inputs": [
        {
          "internalType": "address",
          "name": "operator",
          "type": "address"
        },
        {
          "internalType": "bool",
          "name": "approved",
          "type": "bool"
        }
      ],
      "name": "setApprovalForAll",
      "outputs": [],
      "stateMutability": "nonpayable",
      "type": "function"
    },
    {
      "inputs": [
        {
          "internalType": "bytes4",
          "name": "interfaceId",
          "type": "bytes4"
        }
      ],
      "name": "supportsInterface",
      "outputs": [
        {
          "internalType": "bool",
          "name": "",
          "type": "bool"
        }
      ],
      "stateMutability": "view",
      "type": "function"
    },
    {
      "inputs": [],
      "name": "symbol",
      "outputs": [
        {
          "internalType": "string",
          "name": "",
          "type": "string"
        }
      ],
      "stateMutability": "view",
      "type": "function"
    },
    {
      "inputs": [
        {
          "internalType": "uint256",
          "name": "tokenId",
          "type": "uint256"
        }
      ],
      "name": "tokenURI",
      "outputs": [
        {
          "internalType": "string",
          "name": "",
          "type": "string"
        }
      ],
      "stateMutability": "view",
      "type": "function"
    },
    {
      "inputs": [
        {
          "internalType": "address",
          "name": "from",
          "type": "address"
        },
        {
          "internalType": "address",
          "name": "to",
          "type": "address"
        },
        {
          "internalType": "uint256",
          "name": "tokenId",
          "type": "uint256"
        }
      ],
      "name": "transferFrom",
      "outputs": [],
      "stateMutability": "nonpayable",
      "type": "function"
    },
    {
      "inputs": [
        {
          "internalType": "address",
          "name": "nftContract",
          "type": "address"
        },
        {
          "internalType": "uint256",
          "name": "tokenId",
          "type": "uint256"
        }
      ],
      "name": "approved",
      "outputs": [],
      "stateMutability": "nonpayable",
      "type": "function"
    },
    {
      "inputs": [
        {
          "internalType": "string",
          "name": "tokenURI",
          "type": "string"
        },
        {
          "components": [
            {
              "internalType": "uint104",
              "name": "genre",
              "type": "uint104"
            },
            {
              "internalType": "uint104",
              "name": "language",
              "type": "uint104"
            },
            {
              "internalType": "string",
              "name": "title",
              "type": "string"
            },
            {
              "internalType": "string",
              "name": "description",
              "type": "string"
            }
          ],
          "internalType": "struct MusicNft.musicMetadata",
          "name": "details",
          "type": "tuple"
        }
      ],
      "name": "createToken",
      "outputs": [
        {
          "internalType": "uint256",
          "name": "",
          "type": "uint256"
        }
      ],
      "stateMutability": "nonpayable",
      "type": "function"
    }
  ],
  "bytecode": "0x60806040523480156200001157600080fd5b506040516200329038038062003290833981810160405281019062000037919062000239565b6040518060400160405280600b81526020017f4d7573696320546f6b656e0000000000000000000000000000000000000000008152506040518060400160405280600381526020017f4d535400000000000000000000000000000000000000000000000000000000008152508160009080519060200190620000bb9291906200011f565b508060019080519060200190620000d49291906200011f565b50505080600860006101000a81548173ffffffffffffffffffffffffffffffffffffffff021916908373ffffffffffffffffffffffffffffffffffffffff16021790555050620002d0565b8280546200012d906200029a565b90600052602060002090601f0160209004810192826200015157600085556200019d565b82601f106200016c57805160ff19168380011785556200019d565b828001600101855582156200019d579182015b828111156200019c5782518255916020019190600101906200017f565b5b509050620001ac9190620001b0565b5090565b5b80821115620001cb576000816000905550600101620001b1565b5090565b600080fd5b600073ffffffffffffffffffffffffffffffffffffffff82169050919050565b60006200020182620001d4565b9050919050565b6200021381620001f4565b81146200021f57600080fd5b50565b600081519050620002338162000208565b92915050565b600060208284031215620002525762000251620001cf565b5b6000620002628482850162000222565b91505092915050565b7f4e487b7100000000000000000000000000000000000000000000000000000000600052602260045260246000fd5b60006002820490506001821680620002b357607f821691505b60208210811415620002ca57620002c96200026b565b5b50919050565b612fb080620002e06000396000f3fe608060405234801561001057600080fd5b50600436106100f55760003560e01c80636352211e11610097578063b88d4fde11610066578063b88d4fde14610296578063c1448284146102b2578063c87b56dd146102ce578063e985e9c5146102fe576100f5565b80636352211e146101fc57806370a082311461022c57806395d89b411461025c578063a22cb4651461027a576100f5565b8063095ea7b3116100d3578063095ea7b3146101785780631246c4cc1461019457806323b872dd146101c457806342842e0e146101e0576100f5565b806301ffc9a7146100fa57806306fdde031461012a578063081812fc14610148575b600080fd5b610114600480360381019061010f9190611b97565b61032e565b6040516101219190611bdf565b60405180910390f35b610132610410565b60405161013f9190611c93565b60405180910390f35b610162600480360381019061015d9190611ceb565b6104a2565b60405161016f9190611d59565b60405180910390f35b610192600480360381019061018d9190611da0565b610527565b005b6101ae60048036038101906101a99190612014565b61063f565b6040516101bb919061209b565b60405180910390f35b6101de60048036038101906101d991906120b6565b6107f8565b005b6101fa60048036038101906101f591906120b6565b610858565b005b61021660048036038101906102119190611ceb565b610878565b6040516102239190611d59565b60405180910390f35b61024660048036038101906102419190612109565b61092a565b604051610253919061209b565b60405180910390f35b6102646109e2565b6040516102719190611c93565b60405180910390f35b610294600480360381019061028f9190612162565b610a74565b005b6102b060048036038101906102ab9190612243565b610a8a565b005b6102cc60048036038101906102c79190611da0565b610aec565b005b6102e860048036038101906102e39190611ceb565b610bb7565b6040516102f59190611c93565b60405180910390f35b610318600480360381019061031391906122c6565b610d09565b6040516103259190611bdf565b60405180910390f35b60007f80ac58cd000000000000000000000000000000000000000000000000000000007bffffffffffffffffffffffffffffffffffffffffffffffffffffffff1916827bffffffffffffffffffffffffffffffffffffffffffffffffffffffff191614806103f957507f5b5e139f000000000000000000000000000000000000000000000000000000007bffffffffffffffffffffffffffffffffffffffffffffffffffffffff1916827bffffffffffffffffffffffffffffffffffffffffffffffffffffffff1916145b80610409575061040882610d9d565b5b9050919050565b60606000805461041f90612335565b80601f016020809104026020016040519081016040528092919081815260200182805461044b90612335565b80156104985780601f1061046d57610100808354040283529160200191610498565b820191906000526020600020905b81548152906001019060200180831161047b57829003601f168201915b5050505050905090565b60006104ad82610e07565b6104ec576040517f08c379a00000000000000000000000000000000000000000000000000000000081526004016104e3906123d9565b60405180910390fd5b6004600083815260200190815260200160002060009054906101000a900473ffffffffffffffffffffffffffffffffffffffff169050919050565b600061053282610878565b90508073ffffffffffffffffffffffffffffffffffffffff168373ffffffffffffffffffffffffffffffffffffffff1614156105a3576040517f08c379a000000000000000000000000000000000000000000000000000000000815260040161059a9061246b565b60405180910390fd5b8073ffffffffffffffffffffffffffffffffffffffff166105c2610e73565b73ffffffffffffffffffffffffffffffffffffffff1614806105f157506105f0816105eb610e73565b610d09565b5b610630576040517f08c379a0000000000000000000000000000000000000000000000000000000008152600401610627906124fd565b60405180910390fd5b61063a8383610e7b565b505050565b600061064b6007610f34565b60006106576007610f4a565b90506106633382610f58565b61066d8185611132565b61069a600860009054906101000a900473ffffffffffffffffffffffffffffffffffffffff166001610a74565b826009600083815260200190815260200160002060008201518160000160006101000a8154816cffffffffffffffffffffffffff02191690836cffffffffffffffffffffffffff160217905550602082015181600001600d6101000a8154816cffffffffffffffffffffffffff02191690836cffffffffffffffffffffffffff160217905550604082015181600101908051906020019061073c929190611a88565b506060820151816002019080519060200190610759929190611a88565b509050503073ffffffffffffffffffffffffffffffffffffffff166323b872dd33600860009054906101000a900473ffffffffffffffffffffffffffffffffffffffff16846040518463ffffffff1660e01b81526004016107bc9392919061251d565b600060405180830381600087803b1580156107d657600080fd5b505af11580156107ea573d6000803e3d6000fd5b505050508091505092915050565b610809610803610e73565b826111a6565b610848576040517f08c379a000000000000000000000000000000000000000000000000000000000815260040161083f906125c6565b60405180910390fd5b610853838383611284565b505050565b61087383838360405180602001604052806000815250610a8a565b505050565b6000806002600084815260200190815260200160002060009054906101000a900473ffffffffffffffffffffffffffffffffffffffff169050600073ffffffffffffffffffffffffffffffffffffffff168173ffffffffffffffffffffffffffffffffffffffff161415610921576040517f08c379a000000000000000000000000000000000000000000000000000000000815260040161091890612658565b60405180910390fd5b80915050919050565b60008073ffffffffffffffffffffffffffffffffffffffff168273ffffffffffffffffffffffffffffffffffffffff16141561099b576040517f08c379a0000000000000000000000000000000000000000000000000000000008152600401610992906126ea565b60405180910390fd5b600360008373ffffffffffffffffffffffffffffffffffffffff1673ffffffffffffffffffffffffffffffffffffffff168152602001908152602001600020549050919050565b6060600180546109f190612335565b80601f0160208091040260200160405190810160405280929190818152602001828054610a1d90612335565b8015610a6a5780601f10610a3f57610100808354040283529160200191610a6a565b820191906000526020600020905b815481529060010190602001808311610a4d57829003601f168201915b5050505050905090565b610a86610a7f610e73565b83836114eb565b5050565b610a9b610a95610e73565b836111a6565b610ada576040517f08c379a0000000000000000000000000000000000000000000000000000000008152600401610ad1906125c6565b60405180910390fd5b610ae684848484611658565b50505050565b8173ffffffffffffffffffffffffffffffffffffffff1663095ea7b3600860009054906101000a900473ffffffffffffffffffffffffffffffffffffffff16836040518363ffffffff1660e01b8152600401610b4992919061270a565b600060405180830381600087803b158015610b6357600080fd5b505af1158015610b77573d6000803e3d6000fd5b505050507f9f4e956b08c4fe2df9b65fb5301df39720d1e91ab6c4a34064214659bd6065566001604051610bab9190611bdf565b60405180910390a15050565b6060610bc282610e07565b610c01576040517f08c379a0000000000000000000000000000000000000000000000000000000008152600401610bf8906127a5565b60405180910390fd5b6000600660008481526020019081526020016000208054610c2190612335565b80601f0160208091040260200160405190810160405280929190818152602001828054610c4d90612335565b8015610c9a5780601f10610c6f57610100808354040283529160200191610c9a565b820191906000526020600020905b815481529060010190602001808311610c7d57829003601f168201915b505050505090506000610cab6116b4565b9050600081511415610cc1578192505050610d04565b600082511115610cf6578082604051602001610cde929190612801565b60405160208183030381529060405292505050610d04565b610cff846116cb565b925050505b919050565b6000600560008473ffffffffffffffffffffffffffffffffffffffff1673ffffffffffffffffffffffffffffffffffffffff16815260200190815260200160002060008373ffffffffffffffffffffffffffffffffffffffff1673ffffffffffffffffffffffffffffffffffffffff16815260200190815260200160002060009054906101000a900460ff16905092915050565b60007f01ffc9a7000000000000000000000000000000000000000000000000000000007bffffffffffffffffffffffffffffffffffffffffffffffffffffffff1916827bffffffffffffffffffffffffffffffffffffffffffffffffffffffff1916149050919050565b60008073ffffffffffffffffffffffffffffffffffffffff166002600084815260200190815260200160002060009054906101000a900473ffffffffffffffffffffffffffffffffffffffff1673ffffffffffffffffffffffffffffffffffffffff1614159050919050565b600033905090565b816004600083815260200190815260200160002060006101000a81548173ffffffffffffffffffffffffffffffffffffffff021916908373ffffffffffffffffffffffffffffffffffffffff160217905550808273ffffffffffffffffffffffffffffffffffffffff16610eee83610878565b73ffffffffffffffffffffffffffffffffffffffff167f8c5be1e5ebec7d5bd14f71427d1e84f3dd0314c0f7b2291e5b200ac8c7c3b92560405160405180910390a45050565b6001816000016000828254019250508190555050565b600081600001549050919050565b600073ffffffffffffffffffffffffffffffffffffffff168273ffffffffffffffffffffffffffffffffffffffff161415610fc8576040517f08c379a0000000000000000000000000000000000000000000000000000000008152600401610fbf90612871565b60405180910390fd5b610fd181610e07565b15611011576040517f08c379a0000000000000000000000000000000000000000000000000000000008152600401611008906128dd565b60405180910390fd5b61101d60008383611772565b6001600360008473ffffffffffffffffffffffffffffffffffffffff1673ffffffffffffffffffffffffffffffffffffffff168152602001908152602001600020600082825461106d919061292c565b92505081905550816002600083815260200190815260200160002060006101000a81548173ffffffffffffffffffffffffffffffffffffffff021916908373ffffffffffffffffffffffffffffffffffffffff160217905550808273ffffffffffffffffffffffffffffffffffffffff16600073ffffffffffffffffffffffffffffffffffffffff167fddf252ad1be2c89b69c2b068fc378daa952ba7f163c4a11628f55a4df523b3ef60405160405180910390a461112e60008383611777565b5050565b61113b82610e07565b61117a576040517f08c379a0000000000000000000000000000000000000000000000000000000008152600401611171906129f4565b60405180910390fd5b806006600084815260200190815260200160002090805190602001906111a1929190611a88565b505050565b60006111b182610e07565b6111f0576040517f08c379a00000000000000000000000000000000000000000000000000000000081526004016111e790612a86565b60405180910390fd5b60006111fb83610878565b90508073ffffffffffffffffffffffffffffffffffffffff168473ffffffffffffffffffffffffffffffffffffffff16148061126a57508373ffffffffffffffffffffffffffffffffffffffff16611252846104a2565b73ffffffffffffffffffffffffffffffffffffffff16145b8061127b575061127a8185610d09565b5b91505092915050565b8273ffffffffffffffffffffffffffffffffffffffff166112a482610878565b73ffffffffffffffffffffffffffffffffffffffff16146112fa576040517f08c379a00000000000000000000000000000000000000000000000000000000081526004016112f190612b18565b60405180910390fd5b600073ffffffffffffffffffffffffffffffffffffffff168273ffffffffffffffffffffffffffffffffffffffff16141561136a576040517f08c379a000000000000000000000000000000000000000000000000000000000815260040161136190612baa565b60405180910390fd5b611375838383611772565b611380600082610e7b565b6001600360008573ffffffffffffffffffffffffffffffffffffffff1673ffffffffffffffffffffffffffffffffffffffff16815260200190815260200160002060008282546113d09190612bca565b925050819055506001600360008473ffffffffffffffffffffffffffffffffffffffff1673ffffffffffffffffffffffffffffffffffffffff1681526020019081526020016000206000828254611427919061292c565b92505081905550816002600083815260200190815260200160002060006101000a81548173ffffffffffffffffffffffffffffffffffffffff021916908373ffffffffffffffffffffffffffffffffffffffff160217905550808273ffffffffffffffffffffffffffffffffffffffff168473ffffffffffffffffffffffffffffffffffffffff167fddf252ad1be2c89b69c2b068fc378daa952ba7f163c4a11628f55a4df523b3ef60405160405180910390a46114e6838383611777565b505050565b8173ffffffffffffffffffffffffffffffffffffffff168373ffffffffffffffffffffffffffffffffffffffff16141561155a576040517f08c379a000000000000000000000000000000000000000000000000000000000815260040161155190612c4a565b60405180910390fd5b80600560008573ffffffffffffffffffffffffffffffffffffffff1673ffffffffffffffffffffffffffffffffffffffff16815260200190815260200160002060008473ffffffffffffffffffffffffffffffffffffffff1673ffffffffffffffffffffffffffffffffffffffff16815260200190815260200160002060006101000a81548160ff0219169083151502179055508173ffffffffffffffffffffffffffffffffffffffff168373ffffffffffffffffffffffffffffffffffffffff167f17307eab39ab6107e8899845ad3d59bd9653f200f220920489ca2b5937696c318360405161164b9190611bdf565b60405180910390a3505050565b611663848484611284565b61166f8484848461177c565b6116ae576040517f08c379a00000000000000000000000000000000000000000000000000000000081526004016116a590612cdc565b60405180910390fd5b50505050565b606060405180602001604052806000815250905090565b60606116d682610e07565b611715576040517f08c379a000000000000000000000000000000000000000000000000000000000815260040161170c90612d6e565b60405180910390fd5b600061171f6116b4565b9050600081511161173f576040518060200160405280600081525061176a565b8061174984611904565b60405160200161175a929190612801565b6040516020818303038152906040525b915050919050565b505050565b505050565b600061179d8473ffffffffffffffffffffffffffffffffffffffff16611a65565b156118f7578373ffffffffffffffffffffffffffffffffffffffff1663150b7a026117c6610e73565b8786866040518563ffffffff1660e01b81526004016117e89493929190612de3565b6020604051808303816000875af192505050801561182457506040513d601f19601f820116820180604052508101906118219190612e44565b60015b6118a7573d8060008114611854576040519150601f19603f3d011682016040523d82523d6000602084013e611859565b606091505b5060008151141561189f576040517f08c379a000000000000000000000000000000000000000000000000000000000815260040161189690612cdc565b60405180910390fd5b805181602001fd5b63150b7a0260e01b7bffffffffffffffffffffffffffffffffffffffffffffffffffffffff1916817bffffffffffffffffffffffffffffffffffffffffffffffffffffffff1916149150506118fc565b600190505b949350505050565b6060600082141561194c576040518060400160405280600181526020017f30000000000000000000000000000000000000000000000000000000000000008152509050611a60565b600082905060005b6000821461197e57808061196790612e71565b915050600a826119779190612ee9565b9150611954565b60008167ffffffffffffffff81111561199a57611999611dea565b5b6040519080825280601f01601f1916602001820160405280156119cc5781602001600182028036833780820191505090505b5090505b60008514611a59576001826119e59190612bca565b9150600a856119f49190612f1a565b6030611a00919061292c565b60f81b818381518110611a1657611a15612f4b565b5b60200101907effffffffffffffffffffffffffffffffffffffffffffffffffffffffffffff1916908160001a905350600a85611a529190612ee9565b94506119d0565b8093505050505b919050565b6000808273ffffffffffffffffffffffffffffffffffffffff163b119050919050565b828054611a9490612335565b90600052602060002090601f016020900481019282611ab65760008555611afd565b82601f10611acf57805160ff1916838001178555611afd565b82800160010185558215611afd579182015b82811115611afc578251825591602001919060010190611ae1565b5b509050611b0a9190611b0e565b5090565b5b80821115611b27576000816000905550600101611b0f565b5090565b6000604051905090565b600080fd5b600080fd5b60007fffffffff0000000000000000000000000000000000000000000000000000000082169050919050565b611b7481611b3f565b8114611b7f57600080fd5b50565b600081359050611b9181611b6b565b92915050565b600060208284031215611bad57611bac611b35565b5b6000611bbb84828501611b82565b91505092915050565b60008115159050919050565b611bd981611bc4565b82525050565b6000602082019050611bf46000830184611bd0565b92915050565b600081519050919050565b600082825260208201905092915050565b60005b83811015611c34578082015181840152602081019050611c19565b83811115611c43576000848401525b50505050565b6000601f19601f8301169050919050565b6000611c6582611bfa565b611c6f8185611c05565b9350611c7f818560208601611c16565b611c8881611c49565b840191505092915050565b60006020820190508181036000830152611cad8184611c5a565b905092915050565b6000819050919050565b611cc881611cb5565b8114611cd357600080fd5b50565b600081359050611ce581611cbf565b92915050565b600060208284031215611d0157611d00611b35565b5b6000611d0f84828501611cd6565b91505092915050565b600073ffffffffffffffffffffffffffffffffffffffff82169050919050565b6000611d4382611d18565b9050919050565b611d5381611d38565b82525050565b6000602082019050611d6e6000830184611d4a565b92915050565b611d7d81611d38565b8114611d8857600080fd5b50565b600081359050611d9a81611d74565b92915050565b60008060408385031215611db757611db6611b35565b5b6000611dc585828601611d8b565b9250506020611dd685828601611cd6565b9150509250929050565b600080fd5b600080fd5b7f4e487b7100000000000000000000000000000000000000000000000000000000600052604160045260246000fd5b611e2282611c49565b810181811067ffffffffffffffff82111715611e4157611e40611dea565b5b80604052505050565b6000611e54611b2b565b9050611e608282611e19565b919050565b600067ffffffffffffffff821115611e8057611e7f611dea565b5b611e8982611c49565b9050602081019050919050565b82818337600083830152505050565b6000611eb8611eb384611e65565b611e4a565b905082815260208101848484011115611ed457611ed3611de5565b5b611edf848285611e96565b509392505050565b600082601f830112611efc57611efb611de0565b5b8135611f0c848260208601611ea5565b91505092915050565b600080fd5b600080fd5b60006cffffffffffffffffffffffffff82169050919050565b611f4181611f1f565b8114611f4c57600080fd5b50565b600081359050611f5e81611f38565b92915050565b600060808284031215611f7a57611f79611f15565b5b611f846080611e4a565b90506000611f9484828501611f4f565b6000830152506020611fa884828501611f4f565b602083015250604082013567ffffffffffffffff811115611fcc57611fcb611f1a565b5b611fd884828501611ee7565b604083015250606082013567ffffffffffffffff811115611ffc57611ffb611f1a565b5b61200884828501611ee7565b60608301525092915050565b6000806040838503121561202b5761202a611b35565b5b600083013567ffffffffffffffff81111561204957612048611b3a565b5b61205585828601611ee7565b925050602083013567ffffffffffffffff81111561207657612075611b3a565b5b61208285828601611f64565b9150509250929050565b61209581611cb5565b82525050565b60006020820190506120b0600083018461208c565b92915050565b6000806000606084860312156120cf576120ce611b35565b5b60006120dd86828701611d8b565b93505060206120ee86828701611d8b565b92505060406120ff86828701611cd6565b9150509250925092565b60006020828403121561211f5761211e611b35565b5b600061212d84828501611d8b565b91505092915050565b61213f81611bc4565b811461214a57600080fd5b50565b60008135905061215c81612136565b92915050565b6000806040838503121561217957612178611b35565b5b600061218785828601611d8b565b92505060206121988582860161214d565b9150509250929050565b600067ffffffffffffffff8211156121bd576121bc611dea565b5b6121c682611c49565b9050602081019050919050565b60006121e66121e1846121a2565b611e4a565b90508281526020810184848401111561220257612201611de5565b5b61220d848285611e96565b509392505050565b600082601f83011261222a57612229611de0565b5b813561223a8482602086016121d3565b91505092915050565b6000806000806080858703121561225d5761225c611b35565b5b600061226b87828801611d8b565b945050602061227c87828801611d8b565b935050604061228d87828801611cd6565b925050606085013567ffffffffffffffff8111156122ae576122ad611b3a565b5b6122ba87828801612215565b91505092959194509250565b600080604083850312156122dd576122dc611b35565b5b60006122eb85828601611d8b565b92505060206122fc85828601611d8b565b9150509250929050565b7f4e487b7100000000000000000000000000000000000000000000000000000000600052602260045260246000fd5b6000600282049050600182168061234d57607f821691505b6020821081141561236157612360612306565b5b50919050565b7f4552433732313a20617070726f76656420717565727920666f72206e6f6e657860008201527f697374656e7420746f6b656e0000000000000000000000000000000000000000602082015250565b60006123c3602c83611c05565b91506123ce82612367565b604082019050919050565b600060208201905081810360008301526123f2816123b6565b9050919050565b7f4552433732313a20617070726f76616c20746f2063757272656e74206f776e6560008201527f7200000000000000000000000000000000000000000000000000000000000000602082015250565b6000612455602183611c05565b9150612460826123f9565b604082019050919050565b6000602082019050818103600083015261248481612448565b9050919050565b7f4552433732313a20617070726f76652063616c6c6572206973206e6f74206f7760008201527f6e6572206e6f7220617070726f76656420666f7220616c6c0000000000000000602082015250565b60006124e7603883611c05565b91506124f28261248b565b604082019050919050565b60006020820190508181036000830152612516816124da565b9050919050565b60006060820190506125326000830186611d4a565b61253f6020830185611d4a565b61254c604083018461208c565b949350505050565b7f4552433732313a207472616e736665722063616c6c6572206973206e6f74206f60008201527f776e6572206e6f7220617070726f766564000000000000000000000000000000602082015250565b60006125b0603183611c05565b91506125bb82612554565b604082019050919050565b600060208201905081810360008301526125df816125a3565b9050919050565b7f4552433732313a206f776e657220717565727920666f72206e6f6e657869737460008201527f656e7420746f6b656e0000000000000000000000000000000000000000000000602082015250565b6000612642602983611c05565b915061264d826125e6565b604082019050919050565b6000602082019050818103600083015261267181612635565b9050919050565b7f4552433732313a2062616c616e636520717565727920666f7220746865207a6560008201527f726f206164647265737300000000000000000000000000000000000000000000602082015250565b60006126d4602a83611c05565b91506126df82612678565b604082019050919050565b60006020820190508181036000830152612703816126c7565b9050919050565b600060408201905061271f6000830185611d4a565b61272c602083018461208c565b9392505050565b7f45524337323155524953746f726167653a2055524920717565727920666f722060008201527f6e6f6e6578697374656e7420746f6b656e000000000000000000000000000000602082015250565b600061278f603183611c05565b915061279a82612733565b604082019050919050565b600060208201905081810360008301526127be81612782565b9050919050565b600081905092915050565b60006127db82611bfa565b6127e581856127c5565b93506127f5818560208601611c16565b80840191505092915050565b600061280d82856127d0565b915061281982846127d0565b91508190509392505050565b7f4552433732313a206d696e7420746f20746865207a65726f2061646472657373600082015250565b600061285b602083611c05565b915061286682612825565b602082019050919050565b6000602082019050818103600083015261288a8161284e565b9050919050565b7f4552433732313a20746f6b656e20616c7265616479206d696e74656400000000600082015250565b60006128c7601c83611c05565b91506128d282612891565b602082019050919050565b600060208201905081810360008301526128f6816128ba565b9050919050565b7f4e487b7100000000000000000000000000000000000000000000000000000000600052601160045260246000fd5b600061293782611cb5565b915061294283611cb5565b9250827fffffffffffffffffffffffffffffffffffffffffffffffffffffffffffffffff03821115612977576129766128fd565b5b828201905092915050565b7f45524337323155524953746f726167653a2055524920736574206f66206e6f6e60008201527f6578697374656e7420746f6b656e000000000000000000000000000000000000602082015250565b60006129de602e83611c05565b91506129e982612982565b604082019050919050565b60006020820190508181036000830152612a0d816129d1565b9050919050565b7f4552433732313a206f70657261746f7220717565727920666f72206e6f6e657860008201527f697374656e7420746f6b656e0000000000000000000000000000000000000000602082015250565b6000612a70602c83611c05565b9150612a7b82612a14565b604082019050919050565b60006020820190508181036000830152612a9f81612a63565b9050919050565b7f4552433732313a207472616e736665722066726f6d20696e636f72726563742060008201527f6f776e6572000000000000000000000000000000000000000000000000000000602082015250565b6000612b02602583611c05565b9150612b0d82612aa6565b604082019050919050565b60006020820190508181036000830152612b3181612af5565b9050919050565b7f4552433732313a207472616e7366657220746f20746865207a65726f2061646460008201527f7265737300000000000000000000000000000000000000000000000000000000602082015250565b6000612b94602483611c05565b9150612b9f82612b38565b604082019050919050565b60006020820190508181036000830152612bc381612b87565b9050919050565b6000612bd582611cb5565b9150612be083611cb5565b925082821015612bf357612bf26128fd565b5b828203905092915050565b7f4552433732313a20617070726f766520746f2063616c6c657200000000000000600082015250565b6000612c34601983611c05565b9150612c3f82612bfe565b602082019050919050565b60006020820190508181036000830152612c6381612c27565b9050919050565b7f4552433732313a207472616e7366657220746f206e6f6e20455243373231526560008201527f63656976657220696d706c656d656e7465720000000000000000000000000000602082015250565b6000612cc6603283611c05565b9150612cd182612c6a565b604082019050919050565b60006020820190508181036000830152612cf581612cb9565b9050919050565b7f4552433732314d657461646174613a2055524920717565727920666f72206e6f60008201527f6e6578697374656e7420746f6b656e0000000000000000000000000000000000602082015250565b6000612d58602f83611c05565b9150612d6382612cfc565b604082019050919050565b60006020820190508181036000830152612d8781612d4b565b9050919050565b600081519050919050565b600082825260208201905092915050565b6000612db582612d8e565b612dbf8185612d99565b9350612dcf818560208601611c16565b612dd881611c49565b840191505092915050565b6000608082019050612df86000830187611d4a565b612e056020830186611d4a565b612e12604083018561208c565b8181036060830152612e248184612daa565b905095945050505050565b600081519050612e3e81611b6b565b92915050565b600060208284031215612e5a57612e59611b35565b5b6000612e6884828501612e2f565b91505092915050565b6000612e7c82611cb5565b91507fffffffffffffffffffffffffffffffffffffffffffffffffffffffffffffffff821415612eaf57612eae6128fd565b5b600182019050919050565b7f4e487b7100000000000000000000000000000000000000000000000000000000600052601260045260246000fd5b6000612ef482611cb5565b9150612eff83611cb5565b925082612f0f57612f0e612eba565b5b828204905092915050565b6000612f2582611cb5565b9150612f3083611cb5565b925082612f4057612f3f612eba565b5b828206905092915050565b7f4e487b7100000000000000000000000000000000000000000000000000000000600052603260045260246000fdfea26469706673582212202d81b2d00a52698f84af77a65463588ed39ee4c7ff7b3f89fd5760bff687487964736f6c634300080b0033",
  "immutableReferences": {},
  "source": "// contracts/GIF.sol\n// SPDX-License-Identifier: MIT\npragma solidity ^0.8.0;\n\nimport \"@openzeppelin/contracts/token/ERC721/ERC721.sol\";\nimport \"@openzeppelin/contracts/token/ERC721/extensions/ERC721URIStorage.sol\";\nimport \"@openzeppelin/contracts/utils/Counters.sol\";\n\ncontract MusicNft is ERC721URIStorage {\n    using Counters for Counters.Counter;\n    // _tokenId is a unique id provided to every smart contract.\n    Counters.Counter private _tokenId;\n\n    // Address of market place, where we will sell the NFT\n    address contractAddress;\n\n    //Music metadata\n    struct musicMetadata {\n        uint104 genre;\n        uint104 language;\n        string title;\n        string description;\n    }\n\n    mapping(uint256 => musicMetadata) metadataToId;\n\n    constructor(address marketPlaceAddress) ERC721(\"Music Token\", \"MST\") {\n        contractAddress = marketPlaceAddress;\n    }\n\n    event tokenCreated(\n        uint,\n        musicMetadata\n    );\n    event approvedd(\n        bool\n    );\n    function approved (address nftContract,uint256 tokenId) public{\n        IERC721(nftContract).approve(contractAddress,tokenId);  \n        emit approvedd(true) ;\n    }\n    //Create token and immediately transfer to MusicContract\n    function createToken(string memory tokenURI, musicMetadata memory details) public returns (uint256) {\n        //Set new tokenID for the token by incrementing it by 1\n        _tokenId.increment();\n        uint256 newTokenId = _tokenId.current();\n\n        //Not emmited\n        // emit tokenCreated(newTokenId, details);\n        // approved(address(this), newTokenId);\n        _mint(msg.sender, newTokenId); //Mint token\n\n        _setTokenURI(newTokenId, tokenURI); //Generate URI\n\n        setApprovalForAll(contractAddress, true); //Approve marketplace to sell the NFT\n        \n        metadataToId[newTokenId] = details; //Set detils\n        IERC721(address(this)).transferFrom(\n            msg.sender,\n            contractAddress,\n            newTokenId\n        );\n        return newTokenId;\n    }\n}",
  "sourcePath": "/home/rhythm/Documents/NFT/contracts/MusicNft.sol",
  "compiler": {
    "name": "solc",
    "version": "0.8.11+commit.d7f03943.Emscripten.clang"
  },
  "schemaVersion": "3.4.7",
  "updatedAt": "2022-05-01T06:19:34.440Z",
  "networkType": "ethereum",
  "devdoc": {
    "kind": "dev",
    "methods": {
      "approve(address,uint256)": {
        "details": "See {IERC721-approve}."
      },
      "balanceOf(address)": {
        "details": "See {IERC721-balanceOf}."
      },
      "getApproved(uint256)": {
        "details": "See {IERC721-getApproved}."
      },
      "isApprovedForAll(address,address)": {
        "details": "See {IERC721-isApprovedForAll}."
      },
      "name()": {
        "details": "See {IERC721Metadata-name}."
      },
      "ownerOf(uint256)": {
        "details": "See {IERC721-ownerOf}."
      },
      "safeTransferFrom(address,address,uint256)": {
        "details": "See {IERC721-safeTransferFrom}."
      },
      "safeTransferFrom(address,address,uint256,bytes)": {
        "details": "See {IERC721-safeTransferFrom}."
      },
      "setApprovalForAll(address,bool)": {
        "details": "See {IERC721-setApprovalForAll}."
      },
      "supportsInterface(bytes4)": {
        "details": "See {IERC165-supportsInterface}."
      },
      "symbol()": {
        "details": "See {IERC721Metadata-symbol}."
      },
      "tokenURI(uint256)": {
        "details": "See {IERC721Metadata-tokenURI}."
      },
      "transferFrom(address,address,uint256)": {
        "details": "See {IERC721-transferFrom}."
      }
    },
    "version": 1
  },
  "userdoc": {
    "kind": "user",
    "methods": {},
    "version": 1
  }
}