{
  "contractName": "MusicNft",
  "abi": [
    {
      "inputs": [
        {
          "internalType": "address",
          "name": "marketPlaceAddress",
          "type": "address"
        }
      ],
      "stateMutability": "nonpayable",
      "type": "constructor"
    },
    {
      "anonymous": false,
      "inputs": [
        {
          "indexed": true,
          "internalType": "address",
          "name": "owner",
          "type": "address"
        },
        {
          "indexed": true,
          "internalType": "address",
          "name": "approved",
          "type": "address"
        },
        {
          "indexed": true,
          "internalType": "uint256",
          "name": "tokenId",
          "type": "uint256"
        }
      ],
      "name": "Approval",
      "type": "event"
    },
    {
      "anonymous": false,
      "inputs": [
        {
          "indexed": true,
          "internalType": "address",
          "name": "owner",
          "type": "address"
        },
        {
          "indexed": true,
          "internalType": "address",
          "name": "operator",
          "type": "address"
        },
        {
          "indexed": false,
          "internalType": "bool",
          "name": "approved",
          "type": "bool"
        }
      ],
      "name": "ApprovalForAll",
      "type": "event"
    },
    {
      "anonymous": false,
      "inputs": [
        {
          "indexed": true,
          "internalType": "address",
          "name": "from",
          "type": "address"
        },
        {
          "indexed": true,
          "internalType": "address",
          "name": "to",
          "type": "address"
        },
        {
          "indexed": true,
          "internalType": "uint256",
          "name": "tokenId",
          "type": "uint256"
        }
      ],
      "name": "Transfer",
      "type": "event"
    },
    {
      "inputs": [
        {
          "internalType": "address",
          "name": "to",
          "type": "address"
        },
        {
          "internalType": "uint256",
          "name": "tokenId",
          "type": "uint256"
        }
      ],
      "name": "approve",
      "outputs": [],
      "stateMutability": "nonpayable",
      "type": "function"
    },
    {
      "inputs": [
        {
          "internalType": "address",
          "name": "owner",
          "type": "address"
        }
      ],
      "name": "balanceOf",
      "outputs": [
        {
          "internalType": "uint256",
          "name": "",
          "type": "uint256"
        }
      ],
      "stateMutability": "view",
      "type": "function"
    },
    {
      "inputs": [
        {
          "internalType": "uint256",
          "name": "tokenId",
          "type": "uint256"
        }
      ],
      "name": "getApproved",
      "outputs": [
        {
          "internalType": "address",
          "name": "",
          "type": "address"
        }
      ],
      "stateMutability": "view",
      "type": "function"
    },
    {
      "inputs": [
        {
          "internalType": "address",
          "name": "owner",
          "type": "address"
        },
        {
          "internalType": "address",
          "name": "operator",
          "type": "address"
        }
      ],
      "name": "isApprovedForAll",
      "outputs": [
        {
          "internalType": "bool",
          "name": "",
          "type": "bool"
        }
      ],
      "stateMutability": "view",
      "type": "function"
    },
    {
      "inputs": [],
      "name": "name",
      "outputs": [
        {
          "internalType": "string",
          "name": "",
          "type": "string"
        }
      ],
      "stateMutability": "view",
      "type": "function"
    },
    {
      "inputs": [
        {
          "internalType": "uint256",
          "name": "tokenId",
          "type": "uint256"
        }
      ],
      "name": "ownerOf",
      "outputs": [
        {
          "internalType": "address",
          "name": "",
          "type": "address"
        }
      ],
      "stateMutability": "view",
      "type": "function"
    },
    {
      "inputs": [
        {
          "internalType": "address",
          "name": "from",
          "type": "address"
        },
        {
          "internalType": "address",
          "name": "to",
          "type": "address"
        },
        {
          "internalType": "uint256",
          "name": "tokenId",
          "type": "uint256"
        }
      ],
      "name": "safeTransferFrom",
      "outputs": [],
      "stateMutability": "nonpayable",
      "type": "function"
    },
    {
      "inputs": [
        {
          "internalType": "address",
          "name": "from",
          "type": "address"
        },
        {
          "internalType": "address",
          "name": "to",
          "type": "address"
        },
        {
          "internalType": "uint256",
          "name": "tokenId",
          "type": "uint256"
        },
        {
          "internalType": "bytes",
          "name": "_data",
          "type": "bytes"
        }
      ],
      "name": "safeTransferFrom",
      "outputs": [],
      "stateMutability": "nonpayable",
      "type": "function"
    },
    {
      "inputs": [
        {
          "internalType": "address",
          "name": "operator",
          "type": "address"
        },
        {
          "internalType": "bool",
          "name": "approved",
          "type": "bool"
        }
      ],
      "name": "setApprovalForAll",
      "outputs": [],
      "stateMutability": "nonpayable",
      "type": "function"
    },
    {
      "inputs": [
        {
          "internalType": "bytes4",
          "name": "interfaceId",
          "type": "bytes4"
        }
      ],
      "name": "supportsInterface",
      "outputs": [
        {
          "internalType": "bool",
          "name": "",
          "type": "bool"
        }
      ],
      "stateMutability": "view",
      "type": "function"
    },
    {
      "inputs": [],
      "name": "symbol",
      "outputs": [
        {
          "internalType": "string",
          "name": "",
          "type": "string"
        }
      ],
      "stateMutability": "view",
      "type": "function"
    },
    {
      "inputs": [
        {
          "internalType": "uint256",
          "name": "tokenId",
          "type": "uint256"
        }
      ],
      "name": "tokenURI",
      "outputs": [
        {
          "internalType": "string",
          "name": "",
          "type": "string"
        }
      ],
      "stateMutability": "view",
      "type": "function"
    },
    {
      "inputs": [
        {
          "internalType": "address",
          "name": "from",
          "type": "address"
        },
        {
          "internalType": "address",
          "name": "to",
          "type": "address"
        },
        {
          "internalType": "uint256",
          "name": "tokenId",
          "type": "uint256"
        }
      ],
      "name": "transferFrom",
      "outputs": [],
      "stateMutability": "nonpayable",
      "type": "function"
    },
    {
      "inputs": [
        {
          "internalType": "string",
          "name": "tokenURI",
          "type": "string"
        },
        {
          "components": [
            {
              "internalType": "uint104",
              "name": "genre",
              "type": "uint104"
            },
            {
              "internalType": "uint104",
              "name": "language",
              "type": "uint104"
            },
            {
              "internalType": "string",
              "name": "title",
              "type": "string"
            },
            {
              "internalType": "string",
              "name": "description",
              "type": "string"
            }
          ],
          "internalType": "struct MusicNft.musicMetadata",
          "name": "details",
          "type": "tuple"
        }
      ],
      "name": "createToken",
      "outputs": [
        {
          "internalType": "uint256",
          "name": "",
          "type": "uint256"
        }
      ],
      "stateMutability": "nonpayable",
      "type": "function"
    },
    {
      "inputs": [],
      "name": "sellToken",
      "outputs": [
        {
          "internalType": "uint256",
          "name": "id",
          "type": "uint256"
        }
      ],
      "stateMutability": "nonpayable",
      "type": "function"
    }
  ],
  "bytecode": "0x60806040523480156200001157600080fd5b506040516200310738038062003107833981810160405281019062000037919062000239565b6040518060400160405280600b81526020017f4d7573696320546f6b656e0000000000000000000000000000000000000000008152506040518060400160405280600381526020017f4d535400000000000000000000000000000000000000000000000000000000008152508160009080519060200190620000bb9291906200011f565b508060019080519060200190620000d49291906200011f565b50505080600860006101000a81548173ffffffffffffffffffffffffffffffffffffffff021916908373ffffffffffffffffffffffffffffffffffffffff16021790555050620002d0565b8280546200012d906200029a565b90600052602060002090601f0160209004810192826200015157600085556200019d565b82601f106200016c57805160ff19168380011785556200019d565b828001600101855582156200019d579182015b828111156200019c5782518255916020019190600101906200017f565b5b509050620001ac9190620001b0565b5090565b5b80821115620001cb576000816000905550600101620001b1565b5090565b600080fd5b600073ffffffffffffffffffffffffffffffffffffffff82169050919050565b60006200020182620001d4565b9050919050565b6200021381620001f4565b81146200021f57600080fd5b50565b600081519050620002338162000208565b92915050565b600060208284031215620002525762000251620001cf565b5b6000620002628482850162000222565b91505092915050565b7f4e487b7100000000000000000000000000000000000000000000000000000000600052602260045260246000fd5b60006002820490506001821680620002b357607f821691505b60208210811415620002ca57620002c96200026b565b5b50919050565b612e2780620002e06000396000f3fe608060405234801561001057600080fd5b50600436106100f55760003560e01c80636352211e11610097578063a22cb46511610066578063a22cb46514610298578063b88d4fde146102b4578063c87b56dd146102d0578063e985e9c514610300576100f5565b80636352211e146101fc57806370a082311461022c57806395d89b411461025c5780639769f0b01461027a576100f5565b8063095ea7b3116100d3578063095ea7b3146101785780631246c4cc1461019457806323b872dd146101c457806342842e0e146101e0576100f5565b806301ffc9a7146100fa57806306fdde031461012a578063081812fc14610148575b600080fd5b610114600480360381019061010f9190611a6e565b610330565b6040516101219190611ab6565b60405180910390f35b610132610412565b60405161013f9190611b6a565b60405180910390f35b610162600480360381019061015d9190611bc2565b6104a4565b60405161016f9190611c30565b60405180910390f35b610192600480360381019061018d9190611c77565b610529565b005b6101ae60048036038101906101a99190611eeb565b610641565b6040516101bb9190611f72565b60405180910390f35b6101de60048036038101906101d99190611f8d565b610769565b005b6101fa60048036038101906101f59190611f8d565b6107c9565b005b61021660048036038101906102119190611bc2565b6107e9565b6040516102239190611c30565b60405180910390f35b61024660048036038101906102419190611fe0565b61089b565b6040516102539190611f72565b60405180910390f35b610264610953565b6040516102719190611b6a565b60405180910390f35b6102826109e5565b60405161028f9190611f72565b60405180910390f35b6102b260048036038101906102ad9190612039565b610a16565b005b6102ce60048036038101906102c9919061211a565b610a2c565b005b6102ea60048036038101906102e59190611bc2565b610a8e565b6040516102f79190611b6a565b60405180910390f35b61031a6004803603810190610315919061219d565b610be0565b6040516103279190611ab6565b60405180910390f35b60007f80ac58cd000000000000000000000000000000000000000000000000000000007bffffffffffffffffffffffffffffffffffffffffffffffffffffffff1916827bffffffffffffffffffffffffffffffffffffffffffffffffffffffff191614806103fb57507f5b5e139f000000000000000000000000000000000000000000000000000000007bffffffffffffffffffffffffffffffffffffffffffffffffffffffff1916827bffffffffffffffffffffffffffffffffffffffffffffffffffffffff1916145b8061040b575061040a82610c74565b5b9050919050565b6060600080546104219061220c565b80601f016020809104026020016040519081016040528092919081815260200182805461044d9061220c565b801561049a5780601f1061046f5761010080835404028352916020019161049a565b820191906000526020600020905b81548152906001019060200180831161047d57829003601f168201915b5050505050905090565b60006104af82610cde565b6104ee576040517f08c379a00000000000000000000000000000000000000000000000000000000081526004016104e5906122b0565b60405180910390fd5b6004600083815260200190815260200160002060009054906101000a900473ffffffffffffffffffffffffffffffffffffffff169050919050565b6000610534826107e9565b90508073ffffffffffffffffffffffffffffffffffffffff168373ffffffffffffffffffffffffffffffffffffffff1614156105a5576040517f08c379a000000000000000000000000000000000000000000000000000000000815260040161059c90612342565b60405180910390fd5b8073ffffffffffffffffffffffffffffffffffffffff166105c4610d4a565b73ffffffffffffffffffffffffffffffffffffffff1614806105f357506105f2816105ed610d4a565b610be0565b5b610632576040517f08c379a0000000000000000000000000000000000000000000000000000000008152600401610629906123d4565b60405180910390fd5b61063c8383610d52565b505050565b600061064d6007610e0b565b60006106596007610e21565b90506106653382610e2f565b61066f8185611009565b61069c600860009054906101000a900473ffffffffffffffffffffffffffffffffffffffff166001610a16565b826009600083815260200190815260200160002060008201518160000160006101000a8154816cffffffffffffffffffffffffff02191690836cffffffffffffffffffffffffff160217905550602082015181600001600d6101000a8154816cffffffffffffffffffffffffff02191690836cffffffffffffffffffffffffff160217905550604082015181600101908051906020019061073e92919061195f565b50606082015181600201908051906020019061075b92919061195f565b509050508091505092915050565b61077a610774610d4a565b8261107d565b6107b9576040517f08c379a00000000000000000000000000000000000000000000000000000000081526004016107b090612466565b60405180910390fd5b6107c483838361115b565b505050565b6107e483838360405180602001604052806000815250610a2c565b505050565b6000806002600084815260200190815260200160002060009054906101000a900473ffffffffffffffffffffffffffffffffffffffff169050600073ffffffffffffffffffffffffffffffffffffffff168173ffffffffffffffffffffffffffffffffffffffff161415610892576040517f08c379a0000000000000000000000000000000000000000000000000000000008152600401610889906124f8565b60405180910390fd5b80915050919050565b60008073ffffffffffffffffffffffffffffffffffffffff168273ffffffffffffffffffffffffffffffffffffffff16141561090c576040517f08c379a00000000000000000000000000000000000000000000000000000000081526004016109039061258a565b60405180910390fd5b600360008373ffffffffffffffffffffffffffffffffffffffff1673ffffffffffffffffffffffffffffffffffffffff168152602001908152602001600020549050919050565b6060600180546109629061220c565b80601f016020809104026020016040519081016040528092919081815260200182805461098e9061220c565b80156109db5780601f106109b0576101008083540402835291602001916109db565b820191906000526020600020905b8154815290600101906020018083116109be57829003601f168201915b5050505050905090565b6000610a13600860009054906101000a900473ffffffffffffffffffffffffffffffffffffffff1682610529565b90565b610a28610a21610d4a565b83836113c2565b5050565b610a3d610a37610d4a565b8361107d565b610a7c576040517f08c379a0000000000000000000000000000000000000000000000000000000008152600401610a7390612466565b60405180910390fd5b610a888484848461152f565b50505050565b6060610a9982610cde565b610ad8576040517f08c379a0000000000000000000000000000000000000000000000000000000008152600401610acf9061261c565b60405180910390fd5b6000600660008481526020019081526020016000208054610af89061220c565b80601f0160208091040260200160405190810160405280929190818152602001828054610b249061220c565b8015610b715780601f10610b4657610100808354040283529160200191610b71565b820191906000526020600020905b815481529060010190602001808311610b5457829003601f168201915b505050505090506000610b8261158b565b9050600081511415610b98578192505050610bdb565b600082511115610bcd578082604051602001610bb5929190612678565b60405160208183030381529060405292505050610bdb565b610bd6846115a2565b925050505b919050565b6000600560008473ffffffffffffffffffffffffffffffffffffffff1673ffffffffffffffffffffffffffffffffffffffff16815260200190815260200160002060008373ffffffffffffffffffffffffffffffffffffffff1673ffffffffffffffffffffffffffffffffffffffff16815260200190815260200160002060009054906101000a900460ff16905092915050565b60007f01ffc9a7000000000000000000000000000000000000000000000000000000007bffffffffffffffffffffffffffffffffffffffffffffffffffffffff1916827bffffffffffffffffffffffffffffffffffffffffffffffffffffffff1916149050919050565b60008073ffffffffffffffffffffffffffffffffffffffff166002600084815260200190815260200160002060009054906101000a900473ffffffffffffffffffffffffffffffffffffffff1673ffffffffffffffffffffffffffffffffffffffff1614159050919050565b600033905090565b816004600083815260200190815260200160002060006101000a81548173ffffffffffffffffffffffffffffffffffffffff021916908373ffffffffffffffffffffffffffffffffffffffff160217905550808273ffffffffffffffffffffffffffffffffffffffff16610dc5836107e9565b73ffffffffffffffffffffffffffffffffffffffff167f8c5be1e5ebec7d5bd14f71427d1e84f3dd0314c0f7b2291e5b200ac8c7c3b92560405160405180910390a45050565b6001816000016000828254019250508190555050565b600081600001549050919050565b600073ffffffffffffffffffffffffffffffffffffffff168273ffffffffffffffffffffffffffffffffffffffff161415610e9f576040517f08c379a0000000000000000000000000000000000000000000000000000000008152600401610e96906126e8565b60405180910390fd5b610ea881610cde565b15610ee8576040517f08c379a0000000000000000000000000000000000000000000000000000000008152600401610edf90612754565b60405180910390fd5b610ef460008383611649565b6001600360008473ffffffffffffffffffffffffffffffffffffffff1673ffffffffffffffffffffffffffffffffffffffff1681526020019081526020016000206000828254610f4491906127a3565b92505081905550816002600083815260200190815260200160002060006101000a81548173ffffffffffffffffffffffffffffffffffffffff021916908373ffffffffffffffffffffffffffffffffffffffff160217905550808273ffffffffffffffffffffffffffffffffffffffff16600073ffffffffffffffffffffffffffffffffffffffff167fddf252ad1be2c89b69c2b068fc378daa952ba7f163c4a11628f55a4df523b3ef60405160405180910390a46110056000838361164e565b5050565b61101282610cde565b611051576040517f08c379a00000000000000000000000000000000000000000000000000000000081526004016110489061286b565b60405180910390fd5b8060066000848152602001908152602001600020908051906020019061107892919061195f565b505050565b600061108882610cde565b6110c7576040517f08c379a00000000000000000000000000000000000000000000000000000000081526004016110be906128fd565b60405180910390fd5b60006110d2836107e9565b90508073ffffffffffffffffffffffffffffffffffffffff168473ffffffffffffffffffffffffffffffffffffffff16148061114157508373ffffffffffffffffffffffffffffffffffffffff16611129846104a4565b73ffffffffffffffffffffffffffffffffffffffff16145b8061115257506111518185610be0565b5b91505092915050565b8273ffffffffffffffffffffffffffffffffffffffff1661117b826107e9565b73ffffffffffffffffffffffffffffffffffffffff16146111d1576040517f08c379a00000000000000000000000000000000000000000000000000000000081526004016111c89061298f565b60405180910390fd5b600073ffffffffffffffffffffffffffffffffffffffff168273ffffffffffffffffffffffffffffffffffffffff161415611241576040517f08c379a000000000000000000000000000000000000000000000000000000000815260040161123890612a21565b60405180910390fd5b61124c838383611649565b611257600082610d52565b6001600360008573ffffffffffffffffffffffffffffffffffffffff1673ffffffffffffffffffffffffffffffffffffffff16815260200190815260200160002060008282546112a79190612a41565b925050819055506001600360008473ffffffffffffffffffffffffffffffffffffffff1673ffffffffffffffffffffffffffffffffffffffff16815260200190815260200160002060008282546112fe91906127a3565b92505081905550816002600083815260200190815260200160002060006101000a81548173ffffffffffffffffffffffffffffffffffffffff021916908373ffffffffffffffffffffffffffffffffffffffff160217905550808273ffffffffffffffffffffffffffffffffffffffff168473ffffffffffffffffffffffffffffffffffffffff167fddf252ad1be2c89b69c2b068fc378daa952ba7f163c4a11628f55a4df523b3ef60405160405180910390a46113bd83838361164e565b505050565b8173ffffffffffffffffffffffffffffffffffffffff168373ffffffffffffffffffffffffffffffffffffffff161415611431576040517f08c379a000000000000000000000000000000000000000000000000000000000815260040161142890612ac1565b60405180910390fd5b80600560008573ffffffffffffffffffffffffffffffffffffffff1673ffffffffffffffffffffffffffffffffffffffff16815260200190815260200160002060008473ffffffffffffffffffffffffffffffffffffffff1673ffffffffffffffffffffffffffffffffffffffff16815260200190815260200160002060006101000a81548160ff0219169083151502179055508173ffffffffffffffffffffffffffffffffffffffff168373ffffffffffffffffffffffffffffffffffffffff167f17307eab39ab6107e8899845ad3d59bd9653f200f220920489ca2b5937696c31836040516115229190611ab6565b60405180910390a3505050565b61153a84848461115b565b61154684848484611653565b611585576040517f08c379a000000000000000000000000000000000000000000000000000000000815260040161157c90612b53565b60405180910390fd5b50505050565b606060405180602001604052806000815250905090565b60606115ad82610cde565b6115ec576040517f08c379a00000000000000000000000000000000000000000000000000000000081526004016115e390612be5565b60405180910390fd5b60006115f661158b565b905060008151116116165760405180602001604052806000815250611641565b80611620846117db565b604051602001611631929190612678565b6040516020818303038152906040525b915050919050565b505050565b505050565b60006116748473ffffffffffffffffffffffffffffffffffffffff1661193c565b156117ce578373ffffffffffffffffffffffffffffffffffffffff1663150b7a0261169d610d4a565b8786866040518563ffffffff1660e01b81526004016116bf9493929190612c5a565b6020604051808303816000875af19250505080156116fb57506040513d601f19601f820116820180604052508101906116f89190612cbb565b60015b61177e573d806000811461172b576040519150601f19603f3d011682016040523d82523d6000602084013e611730565b606091505b50600081511415611776576040517f08c379a000000000000000000000000000000000000000000000000000000000815260040161176d90612b53565b60405180910390fd5b805181602001fd5b63150b7a0260e01b7bffffffffffffffffffffffffffffffffffffffffffffffffffffffff1916817bffffffffffffffffffffffffffffffffffffffffffffffffffffffff1916149150506117d3565b600190505b949350505050565b60606000821415611823576040518060400160405280600181526020017f30000000000000000000000000000000000000000000000000000000000000008152509050611937565b600082905060005b6000821461185557808061183e90612ce8565b915050600a8261184e9190612d60565b915061182b565b60008167ffffffffffffffff81111561187157611870611cc1565b5b6040519080825280601f01601f1916602001820160405280156118a35781602001600182028036833780820191505090505b5090505b60008514611930576001826118bc9190612a41565b9150600a856118cb9190612d91565b60306118d791906127a3565b60f81b8183815181106118ed576118ec612dc2565b5b60200101907effffffffffffffffffffffffffffffffffffffffffffffffffffffffffffff1916908160001a905350600a856119299190612d60565b94506118a7565b8093505050505b919050565b6000808273ffffffffffffffffffffffffffffffffffffffff163b119050919050565b82805461196b9061220c565b90600052602060002090601f01602090048101928261198d57600085556119d4565b82601f106119a657805160ff19168380011785556119d4565b828001600101855582156119d4579182015b828111156119d35782518255916020019190600101906119b8565b5b5090506119e191906119e5565b5090565b5b808211156119fe5760008160009055506001016119e6565b5090565b6000604051905090565b600080fd5b600080fd5b60007fffffffff0000000000000000000000000000000000000000000000000000000082169050919050565b611a4b81611a16565b8114611a5657600080fd5b50565b600081359050611a6881611a42565b92915050565b600060208284031215611a8457611a83611a0c565b5b6000611a9284828501611a59565b91505092915050565b60008115159050919050565b611ab081611a9b565b82525050565b6000602082019050611acb6000830184611aa7565b92915050565b600081519050919050565b600082825260208201905092915050565b60005b83811015611b0b578082015181840152602081019050611af0565b83811115611b1a576000848401525b50505050565b6000601f19601f8301169050919050565b6000611b3c82611ad1565b611b468185611adc565b9350611b56818560208601611aed565b611b5f81611b20565b840191505092915050565b60006020820190508181036000830152611b848184611b31565b905092915050565b6000819050919050565b611b9f81611b8c565b8114611baa57600080fd5b50565b600081359050611bbc81611b96565b92915050565b600060208284031215611bd857611bd7611a0c565b5b6000611be684828501611bad565b91505092915050565b600073ffffffffffffffffffffffffffffffffffffffff82169050919050565b6000611c1a82611bef565b9050919050565b611c2a81611c0f565b82525050565b6000602082019050611c456000830184611c21565b92915050565b611c5481611c0f565b8114611c5f57600080fd5b50565b600081359050611c7181611c4b565b92915050565b60008060408385031215611c8e57611c8d611a0c565b5b6000611c9c85828601611c62565b9250506020611cad85828601611bad565b9150509250929050565b600080fd5b600080fd5b7f4e487b7100000000000000000000000000000000000000000000000000000000600052604160045260246000fd5b611cf982611b20565b810181811067ffffffffffffffff82111715611d1857611d17611cc1565b5b80604052505050565b6000611d2b611a02565b9050611d378282611cf0565b919050565b600067ffffffffffffffff821115611d5757611d56611cc1565b5b611d6082611b20565b9050602081019050919050565b82818337600083830152505050565b6000611d8f611d8a84611d3c565b611d21565b905082815260208101848484011115611dab57611daa611cbc565b5b611db6848285611d6d565b509392505050565b600082601f830112611dd357611dd2611cb7565b5b8135611de3848260208601611d7c565b91505092915050565b600080fd5b600080fd5b60006cffffffffffffffffffffffffff82169050919050565b611e1881611df6565b8114611e2357600080fd5b50565b600081359050611e3581611e0f565b92915050565b600060808284031215611e5157611e50611dec565b5b611e5b6080611d21565b90506000611e6b84828501611e26565b6000830152506020611e7f84828501611e26565b602083015250604082013567ffffffffffffffff811115611ea357611ea2611df1565b5b611eaf84828501611dbe565b604083015250606082013567ffffffffffffffff811115611ed357611ed2611df1565b5b611edf84828501611dbe565b60608301525092915050565b60008060408385031215611f0257611f01611a0c565b5b600083013567ffffffffffffffff811115611f2057611f1f611a11565b5b611f2c85828601611dbe565b925050602083013567ffffffffffffffff811115611f4d57611f4c611a11565b5b611f5985828601611e3b565b9150509250929050565b611f6c81611b8c565b82525050565b6000602082019050611f876000830184611f63565b92915050565b600080600060608486031215611fa657611fa5611a0c565b5b6000611fb486828701611c62565b9350506020611fc586828701611c62565b9250506040611fd686828701611bad565b9150509250925092565b600060208284031215611ff657611ff5611a0c565b5b600061200484828501611c62565b91505092915050565b61201681611a9b565b811461202157600080fd5b50565b6000813590506120338161200d565b92915050565b600080604083850312156120505761204f611a0c565b5b600061205e85828601611c62565b925050602061206f85828601612024565b9150509250929050565b600067ffffffffffffffff82111561209457612093611cc1565b5b61209d82611b20565b9050602081019050919050565b60006120bd6120b884612079565b611d21565b9050828152602081018484840111156120d9576120d8611cbc565b5b6120e4848285611d6d565b509392505050565b600082601f83011261210157612100611cb7565b5b81356121118482602086016120aa565b91505092915050565b6000806000806080858703121561213457612133611a0c565b5b600061214287828801611c62565b945050602061215387828801611c62565b935050604061216487828801611bad565b925050606085013567ffffffffffffffff81111561218557612184611a11565b5b612191878288016120ec565b91505092959194509250565b600080604083850312156121b4576121b3611a0c565b5b60006121c285828601611c62565b92505060206121d385828601611c62565b9150509250929050565b7f4e487b7100000000000000000000000000000000000000000000000000000000600052602260045260246000fd5b6000600282049050600182168061222457607f821691505b60208210811415612238576122376121dd565b5b50919050565b7f4552433732313a20617070726f76656420717565727920666f72206e6f6e657860008201527f697374656e7420746f6b656e0000000000000000000000000000000000000000602082015250565b600061229a602c83611adc565b91506122a58261223e565b604082019050919050565b600060208201905081810360008301526122c98161228d565b9050919050565b7f4552433732313a20617070726f76616c20746f2063757272656e74206f776e6560008201527f7200000000000000000000000000000000000000000000000000000000000000602082015250565b600061232c602183611adc565b9150612337826122d0565b604082019050919050565b6000602082019050818103600083015261235b8161231f565b9050919050565b7f4552433732313a20617070726f76652063616c6c6572206973206e6f74206f7760008201527f6e6572206e6f7220617070726f76656420666f7220616c6c0000000000000000602082015250565b60006123be603883611adc565b91506123c982612362565b604082019050919050565b600060208201905081810360008301526123ed816123b1565b9050919050565b7f4552433732313a207472616e736665722063616c6c6572206973206e6f74206f60008201527f776e6572206e6f7220617070726f766564000000000000000000000000000000602082015250565b6000612450603183611adc565b915061245b826123f4565b604082019050919050565b6000602082019050818103600083015261247f81612443565b9050919050565b7f4552433732313a206f776e657220717565727920666f72206e6f6e657869737460008201527f656e7420746f6b656e0000000000000000000000000000000000000000000000602082015250565b60006124e2602983611adc565b91506124ed82612486565b604082019050919050565b60006020820190508181036000830152612511816124d5565b9050919050565b7f4552433732313a2062616c616e636520717565727920666f7220746865207a6560008201527f726f206164647265737300000000000000000000000000000000000000000000602082015250565b6000612574602a83611adc565b915061257f82612518565b604082019050919050565b600060208201905081810360008301526125a381612567565b9050919050565b7f45524337323155524953746f726167653a2055524920717565727920666f722060008201527f6e6f6e6578697374656e7420746f6b656e000000000000000000000000000000602082015250565b6000612606603183611adc565b9150612611826125aa565b604082019050919050565b60006020820190508181036000830152612635816125f9565b9050919050565b600081905092915050565b600061265282611ad1565b61265c818561263c565b935061266c818560208601611aed565b80840191505092915050565b60006126848285612647565b91506126908284612647565b91508190509392505050565b7f4552433732313a206d696e7420746f20746865207a65726f2061646472657373600082015250565b60006126d2602083611adc565b91506126dd8261269c565b602082019050919050565b60006020820190508181036000830152612701816126c5565b9050919050565b7f4552433732313a20746f6b656e20616c7265616479206d696e74656400000000600082015250565b600061273e601c83611adc565b915061274982612708565b602082019050919050565b6000602082019050818103600083015261276d81612731565b9050919050565b7f4e487b7100000000000000000000000000000000000000000000000000000000600052601160045260246000fd5b60006127ae82611b8c565b91506127b983611b8c565b9250827fffffffffffffffffffffffffffffffffffffffffffffffffffffffffffffffff038211156127ee576127ed612774565b5b828201905092915050565b7f45524337323155524953746f726167653a2055524920736574206f66206e6f6e60008201527f6578697374656e7420746f6b656e000000000000000000000000000000000000602082015250565b6000612855602e83611adc565b9150612860826127f9565b604082019050919050565b6000602082019050818103600083015261288481612848565b9050919050565b7f4552433732313a206f70657261746f7220717565727920666f72206e6f6e657860008201527f697374656e7420746f6b656e0000000000000000000000000000000000000000602082015250565b60006128e7602c83611adc565b91506128f28261288b565b604082019050919050565b60006020820190508181036000830152612916816128da565b9050919050565b7f4552433732313a207472616e736665722066726f6d20696e636f72726563742060008201527f6f776e6572000000000000000000000000000000000000000000000000000000602082015250565b6000612979602583611adc565b91506129848261291d565b604082019050919050565b600060208201905081810360008301526129a88161296c565b9050919050565b7f4552433732313a207472616e7366657220746f20746865207a65726f2061646460008201527f7265737300000000000000000000000000000000000000000000000000000000602082015250565b6000612a0b602483611adc565b9150612a16826129af565b604082019050919050565b60006020820190508181036000830152612a3a816129fe565b9050919050565b6000612a4c82611b8c565b9150612a5783611b8c565b925082821015612a6a57612a69612774565b5b828203905092915050565b7f4552433732313a20617070726f766520746f2063616c6c657200000000000000600082015250565b6000612aab601983611adc565b9150612ab682612a75565b602082019050919050565b60006020820190508181036000830152612ada81612a9e565b9050919050565b7f4552433732313a207472616e7366657220746f206e6f6e20455243373231526560008201527f63656976657220696d706c656d656e7465720000000000000000000000000000602082015250565b6000612b3d603283611adc565b9150612b4882612ae1565b604082019050919050565b60006020820190508181036000830152612b6c81612b30565b9050919050565b7f4552433732314d657461646174613a2055524920717565727920666f72206e6f60008201527f6e6578697374656e7420746f6b656e0000000000000000000000000000000000602082015250565b6000612bcf602f83611adc565b9150612bda82612b73565b604082019050919050565b60006020820190508181036000830152612bfe81612bc2565b9050919050565b600081519050919050565b600082825260208201905092915050565b6000612c2c82612c05565b612c368185612c10565b9350612c46818560208601611aed565b612c4f81611b20565b840191505092915050565b6000608082019050612c6f6000830187611c21565b612c7c6020830186611c21565b612c896040830185611f63565b8181036060830152612c9b8184612c21565b905095945050505050565b600081519050612cb581611a42565b92915050565b600060208284031215612cd157612cd0611a0c565b5b6000612cdf84828501612ca6565b91505092915050565b6000612cf382611b8c565b91507fffffffffffffffffffffffffffffffffffffffffffffffffffffffffffffffff821415612d2657612d25612774565b5b600182019050919050565b7f4e487b7100000000000000000000000000000000000000000000000000000000600052601260045260246000fd5b6000612d6b82611b8c565b9150612d7683611b8c565b925082612d8657612d85612d31565b5b828204905092915050565b6000612d9c82611b8c565b9150612da783611b8c565b925082612db757612db6612d31565b5b828206905092915050565b7f4e487b7100000000000000000000000000000000000000000000000000000000600052603260045260246000fdfea26469706673582212209c2f5ff851eaea298dc1a3db798a731c72f0c0ff64add1668eb83f7e3341df5c64736f6c634300080b0033",
  "immutableReferences": {},
  "source": "// contracts/GIF.sol\n// SPDX-License-Identifier: MIT\npragma solidity ^0.8.0;\n\nimport \"@openzeppelin/contracts/token/ERC721/ERC721.sol\";\nimport \"@openzeppelin/contracts/token/ERC721/extensions/ERC721URIStorage.sol\";\nimport \"@openzeppelin/contracts/utils/Counters.sol\";\n\ncontract MusicNft is ERC721URIStorage {\n    using Counters for Counters.Counter;\n    // _tokenId is a unique id provided to every smart contract.\n    Counters.Counter private _tokenId;\n\n    // Address of market place, where we will sell the NFT\n    address contractAddress;\n\n    //Music metadata\n    struct musicMetadata {\n        uint104 genre;\n        uint104 language;\n        string title;\n        string description;\n    }\n\n    mapping(uint256 => musicMetadata) metadataToId;\n\n    constructor(address marketPlaceAddress) ERC721(\"Music Token\", \"MST\") {\n        contractAddress = marketPlaceAddress;\n    }\n\n    function createToken(string memory tokenURI, musicMetadata memory details) public returns (uint) {\n        //Set new tokenID for the token by incrementing it by 1\n        _tokenId.increment();\n        uint newTokenId = _tokenId.current();\n\n        _mint(msg.sender, newTokenId); //Mint token\n\n        _setTokenURI(newTokenId, tokenURI); //Generate URI\n\n        setApprovalForAll(contractAddress, true); //Approve marketplace to sell the NFT\n\n        metadataToId[newTokenId] = details; //Set detils\n\n        return newTokenId;\n    }\n\n    function sellToken() public returns (uint256 id) {\n        approve(contractAddress, id);\n    }\n}\n",
  "sourcePath": "/home/rhythmshandlya/Documents/mp3/contracts/MusicNft.sol",
  "compiler": {
    "name": "solc",
    "version": "0.8.11+commit.d7f03943.Emscripten.clang"
  },
  "schemaVersion": "3.4.6",
  "updatedAt": "2022-03-29T13:00:20.391Z",
  "devdoc": {
    "kind": "dev",
    "methods": {
      "approve(address,uint256)": {
        "details": "See {IERC721-approve}."
      },
      "balanceOf(address)": {
        "details": "See {IERC721-balanceOf}."
      },
      "getApproved(uint256)": {
        "details": "See {IERC721-getApproved}."
      },
      "isApprovedForAll(address,address)": {
        "details": "See {IERC721-isApprovedForAll}."
      },
      "name()": {
        "details": "See {IERC721Metadata-name}."
      },
      "ownerOf(uint256)": {
        "details": "See {IERC721-ownerOf}."
      },
      "safeTransferFrom(address,address,uint256)": {
        "details": "See {IERC721-safeTransferFrom}."
      },
      "safeTransferFrom(address,address,uint256,bytes)": {
        "details": "See {IERC721-safeTransferFrom}."
      },
      "setApprovalForAll(address,bool)": {
        "details": "See {IERC721-setApprovalForAll}."
      },
      "supportsInterface(bytes4)": {
        "details": "See {IERC165-supportsInterface}."
      },
      "symbol()": {
        "details": "See {IERC721Metadata-symbol}."
      },
      "tokenURI(uint256)": {
        "details": "See {IERC721Metadata-tokenURI}."
      },
      "transferFrom(address,address,uint256)": {
        "details": "See {IERC721-transferFrom}."
      }
    },
    "version": 1
  },
  "userdoc": {
    "kind": "user",
    "methods": {},
    "version": 1
  }
}